:020000040800F2
:1000000010090020D5000008DD000008DF0000080E
:1000100000000000000000000000000000000000E0
:10002000000000000000000000000000E1000008E7
:100030000000000000000000E3000008692E000836
:10004000E7000008452D0008E7000008E700000869
:10005000E7000008AD090008E7000008C109000832
:10006000000000006909000879090008E70000089D
:10007000E7000008E700000800000000652F000806
:1000800000000000E7000008000000000000000081
:10009000E700000800000000E7000008E700000893
:1000A000E7000008E7000008E7000008E700000894
:1000B000E7000008D926000800000000000000004A
:1000C0000348854600F0EEFA00480047713F0008FB
:1000D000100900200448804704480047FEE7FEE777
:1000E000FEE7FEE7FEE7FEE7D92E0008C1000008A4
:1000F00030B50B46014600202022012409E00D46C0
:10010000D5409D4205D31D469540491B2546954047
:1001100040191546521E002DF1DC30BDF8B5002403
:100120002546002904DA0E46012400214042B1414F
:10013000002B04DA1E46002352420125B34100F091
:10014000BFF98C4617461E46AC4203D000254042FC
:100150008D41AC46002C02D0002657429E4161469C
:100160003A46334601B0F0BDF0B51FB486B000206A
:100170000090019002900698069980B2049007982A
:10018000090C02040014114307900027089D0998E8
:1001900006913E463C4603900398A9B20204000C27
:1001A000039004982D0C154348430021224600F08B
:1001B000B7F9C719714110340E46402CECDB3846B4
:1001C000029A00F0ADF9009A019B80180090594105
:1001D00002980191103002904028CCDB00980BB0BF
:1001E000F0BDD2B201E00270401C491EFBD2704744
:1001F0000022F6E710B513460A4604461946FFF7F3
:10020000F0FF204610BD024670B54A40D30FDB0711
:1002100040002DD04A002AD0010E140E0002120216
:100220000919400A520A8418E50104465443000A99
:10023000120A2E045043A4194219200CC543AA18CF
:10024000120C0125AD03521C521912047F392404EB
:1002500000D0521C104301D44000491EC2B20C060B
:10026000C0092018401C4008802A02D003E000206A
:1002700070BD40084000002900DA0020184370BD1E
:1002800070B502464A40D50F40004A00ED074008CD
:100290005208002814D0002A12D0C40DD30D4102F8
:1002A0000120C0055202490A520AE41A091812181C
:1002B0007D34914201D3641C00E04900002C01DA36
:1002C000002070BD0023914201D3891A03434008E6
:1002D00049000028F7D100290AD0914202D101211A
:1002E000C90705E0914201D2012101E00121C94382
:1002F000E005C018401900F034F970BD420005D087
:100300004200120E52428A4201DB00207047C905AA
:1003100008187047F0B50C465C4085B0E40FE40760
:1003200003944C000026640859009446490802468C
:100330000296224321D062460A431ED06200570D26
:100340004A000E032303550D012402462C492405BF
:10035000781B1B0B360B4018234326436146009045
:100360001C46501AB44103D30098401C009002E090
:10037000921800985B41002803DA0020014605B07E
:10038000F0BD0020012109050746864611E06446BC
:100390001D46141BB54106D36546521BB341744636
:1003A00007430C43A646CD07400849082843921846
:1003B0005B4105460D43EAD11046184313D0604611
:1003C000194650407140084306D06046101AB341A8
:1003D00006D20122002306E000220123DB0702E00F
:1003E0000122D2435310009874460105381C614124
:1003F000029C039D0019694100F0F4F8BFE700007A
:10040000FD03000070B54B005B0803430BD04B00AD
:100410005C0D002633466542B341D417AD1AA341A3
:1004200002DB0020014670BD12053018514170BD3D
:1004300010B500229623114600F09BF810BD000075
:100440000EB505490291002100910A460B46019123
:1004500000F0D5F803B000BD3304000041004002B5
:100460000122400AD205090E80187F2901DA0020F6
:100470007047962903DC9622511AC8407047963976
:10048000884070474A0009030123090B1B051943E3
:10049000094B10B5520D9A4201DA002010BD064BEF
:1004A00034339A4203DC9A1A00F04AF810BD03492B
:1004B0005118884010BD0000FF030000CDFBFFFF76
:1004C000F0B51FB40646002082B0054640240191D5
:1004D00000901BE0019922460F46304600F030F8AC
:1004E000049A059B801A994110D31046194622465A
:1004F00000F016F8361A8F4101972246012000219C
:10050000009F00F00DF838184D4100902046641E01
:100510000028DFDC019B00982946324607B0F0BD79
:1005200010B5202A04DB0146203A9140002010BD7E
:10053000914020239C1A0346E3401943904010BD8C
:1005400010B5202A04DB0846203AD040002110BD17
:100550000B46D340D0402024A21A914008431946AC
:1005600010BD002904DA401C490001D140084000B8
:10057000704770B40024050C05D11024000402D18A
:10058000002921D01124050E01D100020834050FE5
:1005900001D10001241D850F01D18000A41C002879
:1005A00001DB4000641C002908D020252E1B0D46CD
:1005B000F540A14000D001212943084301061B1B3F
:1005C000000ADB1D02D5002070BC7047DB0518183F
:1005D00080180029F8DA401C4900F5D170BC4008A9
:1005E0004000704710B5002B08DA0024401C614120
:1005F00092185B411A4301D14008400010BDF0B58C
:100600001FB482B005460C0003D0084603F0A7F9DA
:1006100002E003F0A4F9203002460090214628466B
:10062000FFF77EFF049B059A04460F4618431143CB
:10063000084314D0184610431BD0009840210A1AD2
:1006400018460599FFF77CFF05460E46009A059966
:100650000498FFF765FF084305D0012004E0204619
:10066000394607B0F0BD0020C11705430E432C43A7
:10067000374300990E986305401A7905E40A002271
:100680000C43FD0A0A3002D500200146E9E70105C6
:10069000101969410C9C0D9D00196941FFF7A2FFDB
:1006A000DFE70000064C0125064E05E0E36807CCB5
:1006B0002B430C3C98471034B442F7D3FFF704FDAA
:1006C000684400088844000870B5044620688168C2
:1006D000490723D5816810254907002905DA816873
:1006E000890702D481682943816000F0F9FF06463A
:1006F00020688068400711D500F0F2FF801B0A28AF
:1007000008D9A06D2843A065E06D01210843E0658C
:10071000012070BD206880684007EDD4002070BDC6
:1007200010B50246906A816D502319420AD1816D3D
:1007300001225202114381650168CA681205920FB5
:1007400005D020E0006D416B1046884710BD826ADD
:10075000002A18D10A68120715D58A6801235207A2
:10076000002A09DB4A680C24A2434A60816D1A0200
:1007700091431943816506E0816D20221143816513
:10078000C16D1943C16500F059FA10BD10B5806AFA
:10079000816D402211438165C16D04221143C16501
:1007A00000F04EFA10BD10B5806A00F048FA10BD96
:1007B00038B50446094808490068FFF799FC6043CA
:1007C00000900098002805D00098401E00900098E6
:1007D0000028F9D138BD000040420F00340000204D
:1007E000F8B50446206881688907890F012930D14E
:1007F0000168C9072DD08168052211401025012606
:10080000012907D0A06D2843A065E06D3043E06565
:100810000120F8BD81680222114381602168032014
:10082000086000F05DFF074620688068C00710D0B0
:1008300000F056FFC01B0A2807D9A06D2843A06509
:10084000E06D3043E0650120F8BD20688068C00796
:10085000EED10020F8BD0000F8B50446206881689C
:100860008907890F012902D10168C9072ED1816842
:10087000174A102611400125002907D0A06D3043EA
:10088000A065E06D2843E0650120F8BD816829433B
:1008900081600120FFF78CFF00F022FF07462068EF
:1008A0000068C043C00711D000F01AFFC01B0A281F
:1008B00007D9A06D3043A065E06D2843E0650120B5
:1008C000F8BD20680068C043C007EDD10020F8BD26
:1008D0001700008070B5012149020F4C4D1000280F
:1008E0000FD001280FD002280FD0032808D10122F1
:1008F000204600F0EEFE01222946204600F0E9FEE7
:1009000070BD002202E00022F2E70122204600F042
:10091000E0FE0022F0E70000000400508AB210B5AB
:1009200001460123014801F04FFE10BD9800002050
:1009300070B505460C460020FFF7CCFF052000F0FF
:1009400049FD21462846FFF7E9FF70BD10B5044C6C
:1009500004482178FFF74CFC0020207010BD0000F7
:100960001C0000206401002010B5024800F040FB8C
:1009700010BD0000FC03002010B5024800F038FB59
:1009800010BD00000801002010B404686360836893
:10099000102B05D0036899600068C26010BC7047D6
:1009A00003689A600068C16010BC704710B501F020
:1009B000D9FA012000F0CCFD022000F0C9FD10BDE5
:1009C00010B5102000F0C4FD802000F0C1FD012012
:1009D000C00300F0BDFD10BD1A498869C2051A4860
:1009E00003D5426908231A4342618A69920503D5F7
:1009F000426904231A4342618A69520503D5426958
:100A000002231A4342618A69120503D54269102301
:100A10001A4342618A69920403D5426901231A4349
:100A200042618A69920303D5426920231A434261D5
:100A30008A69D20303D5426940231A4342610348BD
:100A4000886170470020024070040020002F0300DE
:100A500070B5044600F044FE05461D4EB069C04323
:100A6000C0070ED1601C08D0002C04D000F038FE66
:100A7000401BA04201D9032070BDB069C043C0072C
:100A8000F0D0B069800701D50220B061B069C043E1
:100A9000C00517D5B069C043800513D5B069C04300
:100AA00040050FD5B069C04300050BD5B069C04300
:100AB000800407D5B069C043800303D5B069C04343
:100AC000C00303D4FFF788FF012070BD002070BD74
:100AD00000200240F8B50446002625464035287D12
:100AE000012808D001202875206881688907890FAE
:100AF00001290ED101E00220F8BD0168C90708D024
:100B0000A06D20210843A0650126002028753046ED
:100B1000F8BDA16DFF220132914302221143A1656C
:100B2000816892071143816000F0DAFD0746206872
:100B30008068002812DA00F0D3FDC01B0A2809D90A
:100B4000A06D0221884310210843A065002028756C
:100B50000120F8BD206880680028ECDBA06D8008CB
:100B60008000401CA065D0E770B50C4C206AFF21C6
:100B700002310843206200F0B3FD0546206AC00040
:100B800009D400F0ADFD401B032801D9012070BD40
:100B9000206AC000F5D5002070BD000000000140B3
:100BA000F8B50C4605464035297D01290DD00121B7
:100BB000297501688A68520709D5816D2022114381
:100BC0008165002028750120F8BD0220F8BD194B71
:100BD0006268D8054710184E9A4215D08A6A236871
:100BE0005B035B0B1A438A622168490305D5B16830
:100BF0000143B1600A20FFF7DBFD2068800315D5B3
:100C0000B0683843B06011E08A6A23685B035B0B0D
:100C10009A438A622168490302D5B1688143B16071
:100C20002068800302D5B068B843B0600020287502
:100C3000F8BD000001100000002701407047704718
:100C40007047000070B50446002C06D0A06D254604
:100C500000264035002802D006E0012070BDE66580
:100C60002E75204600F0D4F8A06DC00603D420688D
:100C70008168490706D5A06D10210843A0652E752F
:100C8000012070BDA16DFF22013291430222114368
:100C9000A16581685B4A8907890F012902D1016832
:100CA000C9072BD1032361699B07994205D05B4299
:100CB000994202D05B00994209D1016989008908F3
:100CC0000161206801696369194301610CE00169F0
:100CD00089008908016190680F2189048843906028
:100CE00090686169084390602068C168182399433F
:100CF000C1602068C168A3691943C160906801217F
:100D00004906884390609068A16C4906084390604A
:100D100020688168C90004D4816801221207114348
:100D200081602068C168384A1140C160206A616AE8
:100D3000022823D000200143A06AA26B4003520086
:100D400010430143206C0143606C80030143E06C5D
:100D5000C00301432068C2681143C160206B014693
:100D6000FF39C23905D0616B08432168CA68104356
:100D7000C860E06A0121012802D00BE00420DAE714
:100D8000A06A002823D0A06D20221043A065E06D4A
:100D90000843E0656068012820D020680169C90720
:100DA00003D0016949084900016120684169C90807
:100DB000C900416120684169E26911434161E6650A
:100DC000A06D80088000401CA065002070BD2068D8
:100DD000C26801231B041A43C260DBE72068026972
:100DE0000A4B1A40026120680269A36825691A4308
:100DF000E3682B431A430261206802690A430261D7
:100E0000D3E70000002701401902FEFF03FCFF7F2B
:100E1000F0B585B0054614492868884222D11348A8
:100E2000416B47153943416328200090032001900E
:100E30000026029605206946000700F095FB0D4C40
:100E40000B4820606660A660E660802020616761D4
:100E50000001A0612020E0612662204600F0FAF93E
:100E60002C65A56205B0F0BD0024014000100240D1
:100E700008000240FC030020F7B504460025206866
:100E8000806840073FD426464036307D01280BD08D
:100E900001273775E06C012803D02046FFF7DCFC02
:100EA0000546002D03D02FE0022003B0F0BDA06D59
:100EB00017490840FF2101310843A0650020E06583
:100EC0003075216D1348C862216D13480863216D88
:100ED0001248486321681C2008602068416810227D
:100EE000114341602068C1683943C1602168206DA9
:100EF0004031029B019A00F045FA20688168042283
:100F00001143816000E00225284603B0F0BD0000D7
:100F1000FEF1FFFF21070008A70700088D07000862
:100F2000F8B5044626464036307D012808D0012712
:100F300037752046FFF7C8FB0546280002D028E099
:100F40000220F8BD2068C16849084900C160206DD1
:100F500000F023F80546280003D0A06D4021084387
:100F6000A06520684168102291434160002D05D0A2
:100F70002046FFF735FC002D05D00AE02046FFF79C
:100F80002FFC0546F7E7A06DFF2101318843384368
:100F9000A065002030752846F8BDF8B504462068E5
:100FA000016849084900016000F09AFB0646206884
:100FB00000682546C00700272035002812D000F021
:100FC0008FFB811B7D20C000814207D9A06B2021AF
:100FD0000843A0632F7103206871F8BD2068006882
:100FE000C007ECD12F71012068710020F8BD00000E
:100FF000F8B5044690480268904920680B04904E6A
:10100000904F884201D108211BE0B04201D18021DC
:1010100017E0B84202D10121C90212E08A49884290
:1010200002D10121C9030CE08849884201D1194647
:1010300007E08749884202D10121C90501E0012169
:10104000C90625460A402035002A37D0016809071D
:1010500034D50168082291430160784920688842AC
:1010600001D108201BE0B04201D1802017E0B84236
:1010700002D10120C00212E07349884202D101204E
:10108000C0030CE07149884201D1184607E070495D
:10109000884202D10120C00501E00120C006664956
:1010A0004860A06B01210843A06304206871002000
:1010B0002871616B002901D0204688475E4802688C
:1010C0005E4920680B15884201D104211BE0B04223
:1010D00001D1402117E0B84201D1194613E05A4925
:1010E000884202D1012189030DE05849884202D18A
:1010F0000121890407E05649884202D1012189056E
:1011000001E0012189060A4234D00168490731D53E
:101110000168890603D4026804218A4302604749B2
:101120002068884201D104201BE0B04201D1402058
:1011300017E0B84201D1184613E04349884202D172
:10114000012080030DE04149884202D10120800442
:1011500007E03F49884202D10120800501E00120DB
:1011600080063549486005206871216B002901D04F
:101170002046884730480268304920684B1588422D
:1011800001D102211BE0B04201D1202117E0B84279
:1011900001D1194613E02C49884202D101214903AB
:1011A0000DE02A49884202D10121490407E028497B
:1011B000884202D10121490501E0012149060A4284
:1011C00038D00168890735D50168890603D40168DC
:1011D00002229143016019492068884201D102200E
:1011E0001BE0B04201D1202017E0B84201D11846DF
:1011F00013E01549884202D1012040030DE0134954
:10120000884202D10120400407E01149884202D1FE
:101210000120400501E00120400607494860A06B1D
:10122000A0630120687100202871E16A002901D0C3
:1012300020468847F8BD0000000002400800024038
:101240001C000240300002404400024058000240AE
:101250006C00024070B4002805D00246203251795B
:10126000002903D004E070BC0120704700211171F7
:101270000221517101680C683A4B1C40C5688368B3
:1012800046692B43056935432B4385692B43C56963
:101290002B43056A2B4323430B60334C0168334BCC
:1012A000A14208D1996A090909019962996A4068BD
:1012B0000143996250E02E4CA14209D1996AF02471
:1012C000A1439962996A406800010143996243E031
:1012D000284CA1420AD1996A0F242402A1439962A1
:1012E000996A406800020143996235E0224CA142AC
:1012F0000AD1996A0F242403A1439962996A40682C
:1013000000030143996227E01C4CA1420AD1996A6B
:101310000F242404A1439962996A80880004014340
:10132000996219E0164CA1420AD1996A0F2424054A
:10133000A1439962996A80880005014399620BE094
:10134000994209D1996A0F242406A1439962996AA6
:1013500000790006014399620120507170BC0020A1
:10136000704700000FC0FFFF0800024080000240ED
:101370001C0002403000024044000240580002407D
:101380006C000240F8B50446204620300579012D56
:101390001ED0012505710226467120680768AF43FB
:1013A00007602046FFF7F0FA2068016831430160CA
:1013B0002068016804221143016020680168082246
:1013C0001143016020680168294301600020F8BDD5
:1013D0000220F8BD31B500F083F9044600F080F931
:1013E0000099001B8842F9D338BD000003484168CA
:1013F000012211434160002070470000002002409C
:10140000F8B505460E461446104F387C012807D023
:10141000012038740E48FFF71BFB002802D012E0B1
:101420000220F8BD00207861022D04D0012D04D0E7
:10143000002D04D004E0346002E0348000E0347019
:101440000348FFF705FB00213974F8BD7004002044
:1014500050C3000005484168C90705D00449C16070
:101460000449C160002070470120704700200240FD
:10147000EFCDAB8905040302F8B50446002601252B
:10148000012C1AD11420FFF7A5FF2D4F012138465A
:1014900000F018F9002810D17D20C000FFF79AFF56
:1014A0000121384600F00EF9002806D12548417F79
:1014B00000292FD0467701F04BF9102C01D0022CD7
:1014C00027D105273F070221384600F0FBF81E4CC4
:1014D000002823D01021384600F0F4F800282CD042
:1014E00026711A48007860700220A070E57006200E
:1014F00020700521144802F067FE010AA171607195
:1015000007211148FFF70AFA1420FFF763FF02F0E2
:101510004FF9F8BD457701F023F9CEE7FF20F5300C
:10152000FFF758FF1021384600F0CCF8002801D012
:101530002571D6E709202071D3E708202071D0E774
:10154000001C0050E8040020FC0200208804002059
:1015500010B504494A69024202D04861FFF78CFF86
:1015600010BD000000040140F0B400220B68002B05
:1015700070D0012494400B68A4462340002B6AD00D
:101580004C68022C01D0122C0CD1D408A4002718CE
:101590003D6A5407E40E0F26A640B5430E69A640E7
:1015A0002E433E624C68012C05D0022C03D0112C36
:1015B00001D0122C11D1856854000326A640B543F2
:1015C000CE68A6402E43866044686546AC430D79DC
:1015D000ED06ED0F9540254345600768540003254F
:1015E000A540AF430E79B607B60FA6403E4306604E
:1015F000C668AE438D68A5403543C5604C68E400BD
:101600004BD5294C656B0126354365639508274CFE
:10161000AD002F19BD689407240F0F26A640B543CF
:1016200005263607B04201D1002616E0204EB04212
:1016300001D1012611E01F4EB04201D102260CE07B
:101640001D4EB04201D1032607E01C4EB04203D12B
:10165000052602E026E020E00626A6402E43BE60D6
:10166000174D2C689C434E68F60300D51C432C6034
:101670006C689C434E68B60300D51C436C60AC6834
:101680009C434E68F60200D51C43AC60EC689C435A
:101690004E68B60200D51C43EC60521C0B68D34068
:1016A00000D066E7F0BC7047001002400000014027
:1016B0000004005000080050000C0050001C0050B6
:1016C000000401400069084201D001207047002059
:1016D0007047002A01D08161704781627047000025
:1016E000014800687047000030000020024801688F
:1016F000491C0160704700003000002010B506480A
:101700000168402211430160002000F007F800F05A
:1017100017F8002010BD00000020024010B504465C
:1017200000F058F97D21C900FEF7E2FC00F024FC2E
:1017300000222146501E00F023F8002010BD0000BA
:1017400010B50948416B0122114341630022114643
:10175000501E00F015F801210022084600F010F894
:10176000012000F003F810BD00100240C106C90EB0
:1017700001208840014908607047000000E100E056
:101780008207D30EFF229A408907090E994000284C
:101790000BDA0007000F0838830808489B00181868
:1017A000C36993430B43C3617047830804489B009C
:1017B0001818036893430B430360704700ED00E083
:1017C00000E400E0BFF34F8F04490348C860BFF353
:1017D0004F8F00BFFDE700000400FA0500ED00E0B8
:1017E00002480168421511430160704700700040D3
:1017F0000A4B1A689208920002431A60084802696C
:1018000004231A430261012906D040BF20BF20BF34
:10181000016999430161704730BFF9E700700040EA
:1018200000ED00E07047000010B5054C6069C00392
:1018300004D5FFF7F7FF01200004606110BD000030
:1018400000040140F8B504460E465F480068C00732
:10185000C00FB0420CD25C480168490849003143CE
:1018600001600068C007C00FB04201D00120F8BD80
:101870002078564F800705D5F868F0218843A16885
:101880000843F8602078C00772D06068022808D04A
:1018900000280BD003280ED03968490710D4012046
:1018A000F8BD396889030BD40120F8BD3968890572
:1018B00006D40120F8BD3968890101D40120F8BDA2
:1018C000F968890889000143F960FFF709FF0546B7
:1018D0006168022910D0032921D0002932D0F9688B
:1018E0000907890F012943D0FFF7FAFE411B384849
:1018F000814238D90320F8BDF9680907890F022908
:1019000036D0FFF7EDFE411B3148814201D903205B
:10191000F8BDF8680007800F0228F2D128E0F968C6
:101920000907890F032923D0FFF7DAFE411B284856
:10193000814201D90320F8BDF8680007800F032811
:10194000F2D115E0F9680907890F11D0FFF7C8FE39
:10195000411B1F48814201D90320F8BDF8680007E8
:10196000800FF3D104E0F8680007800F0128BBD195
:1019700015480168C907C90FB1420BD3016849086E
:101980004900314301600068C007C00FB04201D078
:101990000120F8BD2078400706D5F8680721090224
:1019A0008843E1680843F8602078000707D5F868A5
:1019B0000721C90288432169C9000843F860002053
:1019C000FFF7ACFE0020F8BD0020024000100240EE
:1019D0008813000010B500F031F80549C968054AC0
:1019E0000906090F515CC8400349086010BD00009A
:1019F000001002403E4200083400002010B5FFF7FE
:101A0000E9FF0449C968044A4905490F515CC840C7
:101A100010BD0000001002403E42000810B5FFF764
:101A2000D9FF0449C968044A8904490F515CC84078
:101A300010BD0000001002403E42000810B5214BCE
:101A400058680004420FD9680C2001401E4808D095
:101A5000042909D008290ED00C290ED0521C904020
:101A600010BD521C904010BD1868C00601D5174823
:101A700010BD174810BD174810BDD8680F21890444
:101A80000840D968032292051140820C1248805CFC
:101A9000890D491CDA68012424042240002A04D05C
:101AA0000C4A5043FEF724FB10BD1A68D20604D539
:101AB000064A5043FEF71CFB10BD054A5043FEF793
:101AC00017FB10BD001002400080000000093D001F
:101AD0000024F40000127A005E420008F0B583B0E2
:101AE00004462078C0075ED0FC4EF0680007800FE7
:101AF000022807D0F0680007800F03280BD1F06898
:101B0000C00308D5306880034DD5606800284AD1ED
:101B1000012003B0F0BD012160680904884203D1AF
:101B200030680843306018E0052301221B0492044A
:101B3000984209D130688843306030681043306083
:101B400030680843306008E03068884330603068AF
:101B5000084001903068904330606068002811D0E0
:101B6000FFF7BEFD0546306880031CD4FFF7B8FDC3
:101B7000401B642802D9032003B0F0BD3068800305
:101B8000F4D510E0FFF7ACFD0546306880030AD5B8
:101B9000FFF7A6FD401B642802D9032003B0F0BD67
:101BA00030688003F4D42078800753D5CB4EF0689A
:101BB0001F270007800F3F02012807D0F0680007A9
:101BC000800F032812D1F068C0030FD4306840079B
:101BD00005D5E068012802D0012003B0F0BD70688F
:101BE0002169B84309020843706033E0E0680921C5
:101BF00000281BD032688A4302433260FFF770FD31
:101C00000546306840070AD4FFF76AFD401B0228EA
:101C100002D9032003B0F0BD30684007F4D57068E6
:101C20002169B84309020843706013E030688843B3
:101C30003060FFF755FD0546306840070AD5FFF7CD
:101C40004FFD401B022802D9032003B0F0BD3068CD
:101C50004007F4D42078C00659D5A04EF068A04FB4
:101C60000007800F14D0A06900283AD03168B01561
:101C700001433160FFF734FD05463068800523D409
:101C8000FFF72EFD401B02281BD9032003B0F0BD37
:101C90003068800502D5A06900280FD07068216ADD
:101CA000B843084370607068217F0002000A09068B
:101CB000084370600020FFF731FD28E0012003B0E9
:101CC000F0BD30688005DBD57068216AB8430843F1
:101CD00070607068217F0002000A09060843706086
:101CE00015E03168FF20013081433160FFF7F8FCD7
:101CF0000546306880050AD5FFF7F2FC401B022834
:101D000002D9032003B0F0BD30688005F4D42078F8
:101D1000744D00072DD56069002815D02869012170
:101D200008432861FFF7DCFC06462869800720D4B9
:101D3000FFF7D6FC801B022802D9032003B0F0BDB8
:101D400028698007F4D514E028694008400028611C
:101D5000FFF7C6FC0646286980070AD5FFF7C0FCD6
:101D6000801B022802D9032003B0F0BD2869800738
:101D7000F4D42078400770D5002600275748806BA0
:101D8000C00005D45548826B01040A4382630126D2
:101D900055480068C0051BD453480068FF21013135
:101DA0000843514908600127FFF79AFC02904E480A
:101DB0000068C0050CD4FFF793FC0299401A642810
:101DC00002D9032003B0F0BD47480068C005F2D532
:101DD000A068C11FF93912D001229202002814D044
:101DE00005210902884219D129699010814329618E
:101DF00029691143296129690143296116E028698C
:101E0000FF2101310843286110E02869FF210131D9
:101E10008843286128699043286107E02969FF20E9
:101E2000013081432961286990432861A068002816
:101E300014D0FFF755FC02902869800521D4FFF7E4
:101E40004FFC0299411A2948814202D9032003B06C
:101E5000F0BD28698005F2D513E020E0FFF740FCD3
:101E60000290286980050CD5FFF73AFC0299411AC7
:101E70001E48814202D9032003B0F0BD28698005C5
:101E8000F2D4012F04D11848026881158A430260F8
:101E9000012E04D11148826B01048A438263606A77
:101EA00000285AD00D4DE9680907890F032956D03B
:101EB00001273F0602281BD02868B8432860FFF797
:101EC0000FFC04462868800147D5FFF709FC001B7A
:101ED00002283FD9032003B0F0BD000000100240EB
:101EE00000E0000040100240007000408813000035
:101EF0002868B8432860FFF7F3FB0646286880018E
:101F000009D5FFF7EDFB801B022801D90320E2E78A
:101F100028688001F5D4216BE06AEA680843A16A69
:101F2000FD231B049A4311430843E86028683843A3
:101F30002860FFF7D5FB0446286880010DD4FFF721
:101F4000CFFB001B022801D90320C4E728688001C9
:101F5000F5D502E028688001B7D40020BBE7012056
:101F6000B9E700000248016902221143016170478C
:101F700000E000E07047000010B40B49401E8842AA
:101F800002D910BC0120704708494861084807235E
:101F9000C2691202120A4C042243C2610020886105
:101FA0000B6110BC70470000FFFFFF0000E000E085
:101FB00004ED00E010B5FFF7DDFF10BD0248016938
:101FC000022291430161704700E000E010B5124C1D
:101FD0002078010609D4410608D5802108432070E5
:101FE00008210E4800F098F9606010BD0022626080
:101FF0004020207009490868036A094C234203D134
:1020000003685B085B000360086842620868016857
:1020100001221143016010BD20000020380400207F
:1020200011110000F8B505460C462E462036307DCD
:10203000012820D001203075022070750C27002A5D
:102040001BD0042A29D0082A3AD0E36862682168A4
:10205000286801F02BF82868C1693A029143C161F0
:102060002868C169A26812021143C161012070751C
:1020700000203075F8BD0220F8BDE3686268216871
:10208000286800F0B3FF28688169B9438161286836
:102090008169A26811438161E8E7E36862682168A9
:1020A000286800F0CDFF28688169032292029143DD
:1020B000816128688169A268120211438161D5E7B4
:1020C000E36862682168286800F0D5FF2868C16964
:1020D000B943C1612868C169A2681143C161C5E7FC
:1020E00070B50446002C05D025462035687D0028B3
:1020F00002D006E0012070BD00202875204600F0C7
:102100000BF802206875211D206800F039FF0120BE
:102110006875002070BD000000B587B01048826B64
:1021200001210A438263C26A0A43C262C06A08404C
:102130000190042002900220039004900321059155
:102140000690052002A90007FFF70EFA00220221DF
:102150000F20FFF715FB0F20FFF708FB07B000BDAE
:102160000010024010B504462268002906D0042958
:1021700009D008290CD00C2913D10EE0D068022315
:102180001843D0600DE0D06804231843D06008E005
:10219000D06808231843D06003E0D06810231843A8
:1021A000D0600122206800F015FF2068016801223C
:1021B00011430160002010BD70B50446206801691C
:1021C0000025C9438907002916DBC168C94389076F
:1021D00012D4E91E01610120207520688069800702
:1021E00003D02046FFF7F2FE05E0204600F07BF822
:1021F000204600F079F8257520680169C943490730
:1022000018D4C168C943490714D40421C9430161E2
:1022100002202075206880698005800F03D0204649
:10222000FFF7D4FE05E0204600F05DF8204600F000
:102230005BF8257520680169C943090717D4C1688F
:10224000C943090713D40821C9430161042020753B
:102250002068C069800703D02046FFF7B7FE05E07D
:10226000204600F040F8204600F03EF82575206832
:102270000169C943C90618D4C168C943C90614D441
:102280001021C9430161082020752068C0698005BC
:10229000800F03D02046FFF799FE05E0204600F0AE
:1022A00022F8204600F020F8257520680169C9430E
:1022B000C90708D1C168C943C90704D1891E016192
:1022C000204600F013F820680169C943490609D483
:1022D000C168C943490605D44021C943016120466C
:1022E00000F03FF870BD704770470000094908785A
:1022F000020606D4420604D5C243920602D0401C10
:10230000087070478022104308700020C043486066
:10231000704700002000002010B400220346203344
:102320001C7D012C0AD001241C75002909D0042928
:102330000AD008290BD00C290ED10BE010BC0220CA
:1023400070470068426B07E00068826B04E0006839
:10235000C26B01E00068026C0020187510BC1046CA
:10236000704770477047704770B504462068C16970
:102370002546C90701266035002907D00168C9052F
:1023800004D50662E06E3043E0666E722068C16973
:1023900004228B070221002B07DA8368DB0704D0B5
:1023A0000162E06E1043E0666E722068C3695B07ED
:1023B00007D58368DB0704D00262E06E0843E0665D
:1023C0006E722068C169090708D58168C90705D000
:1023D00008210162E06E0843E0666E72E06E00283C
:1023E00002D02046FFF7BFFF2068C169C90209D5A6
:1023F0008168490206D50121090501626E722046F5
:10240000FFF7B0FF2068C169890605D5006880061E
:1024100002D5204600F040FF2068C169090605D5B5
:102420000068000602D5204601F0E2F82068C16984
:10243000490605D50068400602D5204600F018FF81
:1024400070BD70B50446002C05D025466035687A0D
:10245000002802D006E0012070BD0020287220462E
:1024600000F024F8022068722068016849084900D9
:102470000160204600F05CFF606A002802D0204620
:1024800000F032FE206841680922D2029143416087
:10249000206881682A2291438160206801680122B6
:1024A00011430160204600F085FE70BD30B585B057
:1024B00005461B492868884230D11A48816B0122A1
:1024C0009204114381630320800200900220019056
:1024D00001200290032003900420049069461248D2
:1024E000FFF742F8124C1148206005206060002080
:1024F000A060E060802121616061A0612021E16134
:1025000020622046FEF7A6FE6C66A562002201212D
:102510001D20FFF735F91D20FFF728F905B030BD64
:10252000004800400010024000040050300002400B
:1025300008010020F7B50446134625466035687A41
:10254000012805D0687A122802D0022003B0F0BD1D
:10255000019A002A27D0002B25D0287A012825D0DF
:10256000012028726265582003530026E666687AC7
:1025700012281ED022206872616E0F48C862616EF8
:102580000E480863616E0E4848632168606E24310E
:10259000FEF7F8FE206881684022114381602E72A8
:1025A000002003B0F0BD012003B0F0BD022003B055
:1025B000F0BD32206872DFE72F3200086732000872
:1025C0000D32000870477047FFB581B005460C46D4
:1025D0002E466036707A012805D0707A222802D003
:1025E000022005B0F0BD002C1FD0002A1DD0307A8B
:1025F00001281DD0012030720020E866707A222860
:1026000019D0122070722F4640373A827A82788A27
:10261000401E7882002280212846049B01F020F889
:1026200000280BD0032005B0F0BD012005B0F0BD9F
:10263000022005B0F0BD32207072E4E70120A968E5
:102640000003814202D12869002811D0296820782E
:102650008862641C788A0028D9D10022402128464B
:10266000049B00F0FDFF002809D0032005B0F0BD59
:1026700020882968C005C00D8862A41CEAE7707A2A
:10268000322805D0012070720020307205B0F0BDF4
:1026900022207072F8E770470748084900780880E0
:1026A0000748027C4A80C27BCA80407C88800548FB
:1026B000C088088170470000880400205401002071
:1026C000A8040020C804002000210020014A118035
:1026D000508070474401002010B517480068C16958
:1026E000C906CA0F016810231940002A15D0002915
:1026F00013D00362114A106801684908490001605B
:1027000010684368FF2101310D4CCB1A23704160E2
:10271000106801680122114301600520FEF75AFE8E
:1027200008480A490278084B48781A54401C4870F7
:102730000148FFF719FE10BD980000200801002095
:102740001C000020640100207C0300200000002009
:1027500010B50520002201210007FEF7BAFF10BDC9
:1027600010B50122052011460007FEF7B2FF10BD8B
:1027700000B583B01A481949016000214160032265
:102780009207426181610622C261012202624162B6
:102790008162C162416381630422C2630164416456
:1027A0008164C164FEF74EFA0E48009069460C48F9
:1027B000FEF7F6F90C48009069460948FEF7F0F973
:1027C0000A48009069460648FEF7EAF90848009072
:1027D00069460348FEF7E4F903B000BD0024014058
:1027E000380000200800000C2000001400000448FD
:1027F0000000024408B51048016B01221143016337
:10280000006B10400090002211460920FEF7B8FF2F
:102810000920FEF7ABFF012200210A20FEF7B0FFDE
:102820000A20FEF7A3FF002211460A20FEF7A8FFA8
:102830000A20FEF79BFF08BD00100240F0B587B0EC
:102840005148C26A04210A43C262C26A0A40019224
:10285000C16A80221143C162C16A11400191C16AFB
:1028600001252943C162C16A29400191C16A02263A
:102870003143C162C06A304001900324434F640376
:10288000002221463846FEF724FF05200022404959
:102890000007FEF71EFF00223E493F48FEF719FFE2
:1028A0000294039500240494059402A93846FEF787
:1028B0005BFEE803029039480390049402A938466D
:1028C000FEF752FE0295364F0397049402A935484D
:1028D000FEF74AFE029603200390049402A93148B1
:1028E000FEF742FE2A4802900395049405940520C1
:1028F00002A90007FEF738FE122002900397049504
:10290000052002A90007FEF72FFE274802900320AA
:1029100003900494052002A90007FEF725FE1B2062
:10292000029003200390049402A91B48FEF71CFEAA
:102930001E48029003950494059402A91648FEF7D8
:1029400013FE2020029003950494059602A91248D4
:10295000FEF70AFE802002900397049402A90E4815
:10296000FEF702FE002203210520FEF709FF0520E5
:10297000FEF7FCFE002203210720FEF701FF0720DF
:10298000FEF7F4FE07B0F0BD001002400008005052
:10299000011F000064F3000000040050000011104B
:1029A00000002110001C0050C080000044F3000013
:1029B00010B50A48084901604B21C9014160002156
:1029C0008160C16001610C224261816101624162EA
:1029D000FFF737FD10BD00000048004098000020C0
:1029E000F8B50F4606460121002000F041F902210A
:1029F000002000F03DF96420FEF7ECFC05252D07D2
:102A0000884C012E0AD0002E7DD10022402186481C
:102A1000FEF75FFE207C002876D0B4E00022402143
:102A20008148FEF756FE207C002811D000260AE0DF
:102A3000012220217C48FEF74CFE002220217A480A
:102A4000FEF747FE761C207C78494843B042EFD819
:102A5000754E012211033046FEF73BFE0022042191
:102A60003046FEF736FE012240213046FEF731FEA9
:102A7000012F06D0022F0CD0032F12D0042F2AD101
:102A80001CE00121002209032846FEF722FE012254
:102A9000ABE00121002289022846FEF71AFE01223E
:102AA000ACE0FF21002201312846FEF712FE012290
:102AB000D1033046FEF70DFE0120B1E001210022D6
:102AC00089033046FEF705FE012251033046FEF72A
:102AD00000FE012080E0207C002802D06420FEF768
:102AE00079FC607C002803D064214843FEF772FC27
:102AF00001242403002221463046FEF7EAFD00228D
:102B00000421304601E027E042E0FEF7E2FD012F1C
:102B10000DD0022F14D0032F1FD0042F1CD1002260
:102B2000A1003046FEF7D5FD002261001EE0002224
:102B300021462846FEF7CDFD00220121C90208E00A
:102B40000121002289022846FEF7C3FD002201214F
:102B500049022846FEF7BDFDF8BDFF2100220131E4
:102B60002846FEF7B6FD00220121C9033046F1E7F1
:102B7000012220212C48FEF7ACFD002220212A480A
:102B8000FEF7A7FD761C207C28494843B042EFD8C9
:102B9000254E0121002209033046FEF79AFD01224D
:102BA00004213046FEF795FD012240213046FEF714
:102BB00090FD012F13D0022F1AD0032F24D0042F01
:102BC00089D1012291033046FEF783FD0022F902EC
:102BD0003046FEF77EFD0020154908707BE7012294
:102BE00011032846FEF775FD00220121C90207E006
:102BF000012291022846FEF76CFD002201214902C4
:102C00002846FEF766FD66E7012211022846FEF718
:102C100060FD01210022C9033046FEF75AFD002065
:102C20000449DAE7A804002000040050102700003F
:102C300005000020040000200278120240781043B2
:102C4000094A0A4B012905D0022902D1C82808D80F
:102C5000507470470F2801D810747047107C18808A
:102C60007047507C58807047A80400205401002011
:102C7000F8B5052501272D073F03314C0E460128E5
:102C80001ED000283BD1002239462046FEF721FD08
:102C9000002204212046FEF71CFD012E32D0022E18
:102CA00039D0032E42D0042E29D1002201218903DC
:102CB0002046FEF70EFD00220121490320461CE0BC
:102CC000002239462046FEF704FD01220421204659
:102CD000FEF7FFFC012240212046FEF7FAFC012E00
:102CE00007D0022E07D0032E0AD0042E07D10122CE
:102CF000DCE7012207E001220EE0FEF7EAFCF8BD66
:102D0000012214E0002239462846FEF7E2FC0022A8
:102D10000121C90208E00022012189022846FEF7AC
:102D2000D8FC0022012149022846E6E70022FF21C3
:102D300001312846FEF7CDFC00220121C903BDE781
:102D40000004005010B5FEF76FFD10BD007870470D
:102D500010B51C480178F72900D900211A480170E4
:102D60001849491C09780F2900D90021164A203238
:102D700011741449891C0978C82900D9002151749B
:102D800010490D310978282900D900210E4B8033D4
:102D900059700C491C46091D0978203CA177094946
:102DA000C91C0978152900D90021D17301210174AA
:102DB00006490A6942604A698260496AC160002026
:102DC000187010BD00000808880400204000F81F9B
:102DD00070B50E46044601F0F7F900283FD160783F
:102DE000FF283CD1A078FF2839D1E178F72936D8DF
:102DF00022790F2A33D86079C82830D8C2422ED021
:102E00001748174D0170207920352874607968744F
:102E1000A079E873134800F095FD1248297C401C06
:102E200000F090FD0F48697C801C00F08BFD0D4880
:102E3000E97BC01C00F086FD2846603041780948D7
:102E40000D3000F07FFD31462046FDF771FDFDF7A6
:102E50007DFD7D200001FEF7BDFAFEF7B3FC70BDDD
:102E6000880400200000080810B5FEF73FFCFFF7BB
:102E7000A1F810BD10B592B01548816B0204114342
:102E80008163144801680322D2029143C214891855
:102E90000160022000900024019401210391099017
:102EA0000A9440040B9000010C9010200490684696
:102EB000FEF714FE0F200D9003200E900F94109437
:102EC000119401210DA8FEF7BDFC12B010BD000049
:102ED0000010024000700040104801688215114344
:102EE0000160C1680E4A1140C16001680D4A11407D
:102EF00001608168490849008160016801229204EB
:102F000091430160C168FD2212049143C160002118
:102F100001610549C003886070470000001002404D
:102F20000C40FF88F6FFF6FE00ED00E010B584B01F
:102F300001230B4A9B071360516000249460D0600A
:102F400014611046FFF7CCF8009401200190029420
:102F50000394082269460248FFF764F804B010BDE4
:102F60003804002010B504480178491C017003485A
:102F7000FFF722F910BD00000000002038040020F7
:102F8000F0B402680124A407104D114EA04203D0F2
:102F9000A84201D0B04204D170271346BB434A680F
:102FA0001A43A04203D0A84201D0B04204D1032367
:102FB0001B029A43CB681A4302608A68C26209689E
:102FC000816201214161F0BC7047000000080140AE
:102FD0000014014010B401238B40046A9C43046236
:102FE000036A8A401343036210BC704770B4046ADA
:102FF0006408640004628469056A0126B607B04269
:1030000005D00D4EB04202D00C4EB04203D1A40800
:10301000A400144303E0A408A40001221443F022F6
:1030200094431A07120E22430A239D431940294351
:103030008261016270BC70470008014000140140C9
:1030400070B4046A1025AC4304628569046A0326DF
:103050003602B54312022A430F252D03AA431B074C
:103060001B0C1343A02294430901114021438361A7
:10307000016270BC704730B4046AFF250135AC436F
:103080000462C469056AA408A4001443F0229443AE
:103090001A07120E224305235B029D430A2319409F
:1030A00009022943C261016230BC704770B4046AEE
:1030B00001252D03AC430462C569046A0326360268
:1030C000B54312022A430F252D03AA431B071B0CED
:1030D00013430522520394430A221140090321435A
:1030E000C361016270BC704710B4818CC90707D0FE
:1030F00001684A6801235B049A43836A1A434A6061
:10310000818C890707D501684A6801231B049A430B
:10311000C36A1A434A60818C490707D501684A6827
:1031200001239B049A43036B1A434A60818C09076D
:1031300007D501684A680123DB039A43436B1A43AE
:103140004A60818CC90607D501688A6801231B0380
:103150009A43836B1A438A60818C890607D501687C
:103160008A6801235B039A43C36B1A438A60818C8C
:10317000490612D501684B6801221205046C93437D
:1031800023434B60016C914207D101684A680323D5
:103190005B059A43436C1A434A60818C090607D544
:1031A00001684A680123DB04806C9A4302434A6049
:1031B00010BC704770B5044620680068124D0007C7
:1031C0000AD501212B4600224905204600F048FA85
:1031D000002801D0032070BD2068006840070AD590
:1031E00001212B4600228905204600F039FA0028EB
:1031F00001D0032070BD0021204660300172E166DD
:1032000001214172002070BDF055000010B5806AA8
:103210000022014640314A834A82012269210A5430
:10322000C16E10221143C166FFF79DF810BD10B5A5
:103230000146886A0968096889060ED400225A2165
:103240000A5201688A6840239A438A6001466031C5
:103250004A7A322A04D001224A72FFF7B3F910BD2C
:1032600012224A72F9E710B5806AFFF7ACF910BD77
:1032700010B501680A6840239A430A60014660312C
:103280004A7A322A05D001224A72FFF704FA002056
:1032900010BD22224A72F8E770B502464032938B85
:1032A000014660314C7A222C04D04C7A322C01D069
:1032B000022070BD012584682D03AC4202D104694F
:1032C000002C0ED00468646A1C40436D5D1C45658B
:1032D0001C70538B5B1E1B041B0C53830AD00020F5
:1032E00070BD446D05686D6A1D402580436D9B1C53
:1032F0004365EEE70268D3699B06FCD4136820247B
:10330000A34313604A7A322A0FD002681368E4009C
:10331000A3431360026893685B085B00936001221B
:103320004A72FFF74FF9002070BD12224A72F8E787
:10333000F8B5044600200021A04B22682669A56844
:10334000E769354366693E43354316689C4F3E4006
:103350002E4316602268556803263603B543E66897
:1033600035435560A26925689D4201D0266A3243E3
:10337000AE680B273F02BE431643AE60914E2568F0
:10338000914AB54212D1D2689207920F06D0012A13
:1033900008D0022A04D0032A2CD105E0012029E01C
:1033A000022027E0042025E0082023E0874EB542D4
:1033B00010D1D2680C2632401CD0042A06D0082A2C
:1033C00002D00C2A16D103E0022013E0042011E001
:1033D00008200FE09D420DD1D2680326B60232408C
:1033E00008D00126B602921B1ED0921B1AD0B24200
:1033F00000D10820764A9D425FD1002816D00228CD
:1034000029D0042844D008280BD16068FDF718F8AB
:1034100002460B4600206F49FCF77CFFFDF732F8AF
:10342000E860F8BD0220E5E70420E3E76068FDF707
:1034300007F805460E46FEF7E1FAFDF701F8082207
:10344000FCF7E0FF2A463346FCF764FFFDF71AF865
:103450002168C860F8BD1068C0060CD56068FCF72C
:10346000EFFF02460B4600205B49FCF753FFFDF7D8
:1034700009F8E860F8BD6068FCF7E2FF02460B4619
:1034800000205649FCF746FFFCF7FCFFE860F8BD5A
:103490006068FCF7D5FF05460E46FEF7CFFAFCF74D
:1034A000CFFF0822FCF7AEFF2A463346FCF732FF77
:1034B000FCF7E8FF2168C860F8BD0123E669DB037B
:1034C0009E4240D1092836D203007B441B79DB1889
:1034D0009F44040C1431233131312B00FEF78EFA56
:1034E00040006168FCF704FE81B224E0FEF796FA22
:1034F00040006168FCF7FCFD81B21CE01068C0066A
:1035000005D537486168FCF7F3FD81B213E0354813
:103510006168FCF7EDFD81B20DE0FEF78FFA400027
:103520006168FCF7E5FD81B205E0012000046168F7
:10353000FCF7DEFD81B20A0912010807400F1043B3
:103540002168C860F8BD0928FCD2010079440979D6
:1035500049188F44050D1504240404042C00F1E7D8
:10356000FEF74CFA6168FCF7C3FD2168C860F8BD3E
:10357000FEF754FA6168FCF7BBFD2168C860F8BD2E
:103580001068C00605D518486168FCF7B1FDE86011
:10359000F8BD16486168FCF7ABFDE860F8BDFEF7C2
:1035A0004DFA6168FCF7A4FD2168C860F8BD1846B3
:1035B0006168FCF79DFDE860F8BD00000048004030
:1035C000F369FFEF00380140401002400044004022
:1035D00000100240000060418084CE418084EE41B2
:1035E00000127A000048E80100093D000024F400C0
:1035F000014660314A7A122A04D0497A322901D030
:1036000002207047014640314A8A002A12D0012325
:1036100082681B039A4202D10269002A16D0C26C4A
:10362000531CC364006812788262488A401E488234
:103630000020704701680A6880239A430A60006886
:10364000016840221143016000207047C26C03688A
:103650001288D205D20D9A62C26C921CC264E4E751
:10366000F8B504460E4617461D46FEF739F8009099
:10367000394627466037002905D02068C1693046A1
:1036800088432FD058E02068C1693046884353D022
:10369000681C21D0002D05D0FEF722F80099401AB1
:1036A000A84219D9206801688022914301602068EE
:1036B000016820229143016020680168D200914393
:1036C00001602068816849084900816001207872A2
:1036D000002038720320F8BD2068C1693046884355
:1036E000D6D129E0681C22D0002D05D0FDF7F8FFC7
:1036F0000099401AA8421AD92068026880218A439A
:1037000002602068026820218A4302602068016804
:10371000FF22013291430160206881684908490015
:10372000816001207872002038720320F8BD206883
:10373000C16930468843D5D00020F8BD0748084904
:10374000007808800748027C4A80C27BCA80407C9F
:1037500088800548C08808817047000088040020E0
:1037600054010020A8040020C8040020F8B505205A
:10377000002402210007FDF7A5FF012600270B4DBD
:1037800000280BD0AF74052010210007FDF79AFF29
:10379000002806D0F7206F752040F8BDAE740124D4
:1037A000F1E708206E752043F8BD0000A804002052
:1037B000F8B501210846FFF75BFA02210120FFF767
:1037C00057FA012251035248FDF783FF062251495F
:1037D0005148FDF751FBFF2491342046FDF7FAFDD7
:1037E0004D48FDF79DFB06224A494B48FDF744FB37
:1037F0002046FDF7EFFD474CA068FCF719FE054693
:1038000000904648008BFCF713FE4549FCF7FBFC93
:103810002946FCF735FD43490646C8606068FCF759
:1038200007FE3146FCF7EFFC3F4F3946FCF7EBFC57
:103830000121FCF763FD3D49FCF722FDFCF70EFE7C
:103840003B4D28802068FCF7F3FD3146FCF7DBFC9C
:103850003946FCF7D8FC3749FCF7D5FC3649FCF76C
:103860000FFD3249FCF70CFDFCF7F8FD688031468E
:103870000098FCF7C8FC0121FCF740FD2B49FCF740
:10388000FFFCFCF7EBFD2D4C6087C820FDF7A2FD87
:103890000121002249031E48FDF71BFF1E48FDF7CA
:1038A0003FFB00F055FCA88001210020FFF7E0F964
:1038B00002210020FFF7DCF903232078204C607000
:1038C0000420A0700620E07000204200A95A0E0AD1
:1038D000121916715171401C9842F6DB5D00681D8B
:1038E0002070281DC1B2164800F06EFC291908711D
:1038F000000A4871AD1DECB20020FCF7EBFF14206C
:10390000FDF768FD21460E48FDF708F8F8BD0000F8
:103910000008005064020020380000206000F81FFA
:1039200000004040040000200000484500F07F45B2
:10393000440100209A9921413333534088040020E8
:10394000FC02002070B50C460546FDF783FD2246BB
:1039500029460020FDF754FDFDF748FD70BD2021EC
:10396000020C01D010211046020A01D0104608397D
:10397000020901D01046091F820801D01046891E95
:10398000420801D0881E7047081A704702E008C834
:10399000121F08C1002AFAD170477047002001E0C9
:1039A00001C1121F002AFBD170470000F8B506467E
:1039B0000C462146304600F007FC002809D1092CAE
:1039C00007D1EB48407F012803D121463046FFF75D
:1039D000FFF92146304600F0F7FB002839D1092CC9
:1039E00037D1FF20F530FDF7F5FCE248717800781B
:1039F00081422ED1B17800292BD0DF4D6870B0788C
:103A0000A870F078317900020843009070790402C0
:103A1000B0790443B078D949052701281AD0022883
:103A20006CD003287DD004287CD005287BD00628C4
:103A30007AD08030A8700120E8702F7004212846C9
:103A400000F0C2FB2871000A687106212846FCF7C5
:103A50006FFFF8BD0023601E88423DD82246C8484B
:103A6000009900F091F9002812D070788030A87089
:103A70000220E87006242C700421BF4800F0A4FB4B
:103A80002871000A68712146BB48FCF751FFF8BD58
:103A9000641EE017400F00194005040E601C02462A
:103AA000E8700020002A06DDB5492E180B5C337142
:103AB000401C9042F9DBA01D2870601DC1B2AE48C9
:103AC00000F082FB29194871000A8871E41DE1B2F7
:103AD000A948FCF72DFFF8BD70788030A87002204F
:103AE000E8702F700321A44800F06EFB2871000AD3
:103AF00068710621A048FCF71BFFF8BD601E8842D4
:103B000041D822469E48009900F08EF9002816D030
:103B100070788030A8700220E8702F7004219648D9
:103B200003E042E091E0BEE000E100F04DFB2871CF
:103B3000000A687106219048FCF7FAFEF8BD641E81
:103B4000E017400F00194005040E601C0146E870A4
:103B50000020002906DD8A4A2E18135C3371401CB0
:103B60008842F9DBA01D2870601DC1B2824800F0B8
:103B70002BFB29194871000A8871E41DE1B27E48C7
:103B8000FCF7D6FEF8BD70788030A8700220E8708F
:103B90002F700421784800F017FB2871000A687123
:103BA00006217548FCF7C4FEF8BD601E7C283AD893
:103BB000002322467248009900F066F9002811D0CF
:103BC00070788030A8700220E8702F7004216A4855
:103BD00000F0FAFA2871000A687106216648FCF7BD
:103BE000A7FEF8BDEC700020002C0ADD644E4100F9
:103BF000735C4A191371891949785171401CA042AC
:103C0000F5DB6400601D2870201DC1B25A4800F029
:103C1000DBFA61190871000A4871A41DE1B2564827
:103C2000FCF786FEF8BD70788030A8700320E8703D
:103C30002F700421504800F0C7FA2871000A6871FB
:103C400006214D48FCF774FEF8BD601E7C2818D88C
:103C500022464B48009900F061F90028F4D07078B2
:103C60008030A8700220E8702F700421424800F0D4
:103C7000ABFA2871000A687106213F48FCF758FE2C
:103C8000F8BD70788030A8700320E8702F70042190
:103C9000394800F099FA2871000A687106213648FF
:103CA000FCF746FEF8BD09213046FCF741FE012332
:103CB000002C03D0FF200002844225D1002C1BD011
:103CC00030490120087001222E48009900F05CF86C
:103CD000002815D0B0788030A8700220E8702F70CE
:103CE0000421254800F070FA2871000A6871062145
:103CF0002148FCF71DFEF8BD224800210170E2E7D3
:103D00000F20FDF767FBF8BDB0788030A870032066
:103D1000E8702F700421184800F056FA2871000A44
:103D2000687106211448FCF703FEF8BD012315480D
:103D3000210A017044700122009900F0A5F80028C2
:103D400011D0B0788030A8700220E8702F70042164
:103D5000094800F039FA2871000A687106210648FE
:103D6000FCF7E6FDF8BD09213046FCF7E1FDF8BDA2
:103D7000E804002088040020FC020020CF07000097
:103D80007C02002014000020FFB581B005460F46DC
:103D900016460020009034B2FEF7E2FC38B200284C
:103DA00039DBB919102936D806460498002802D004
:103DB000012832D114E0002C2FDD082C01DD082071
:103DC00000E02046C2B2B1B2164800F015FA2870E1
:103DD0006D1C083C24B2083636B2002CEDDC1CE029
:103DE000002C1ADD032F01D0022F03D12878791C73
:103DF000FEF7F6FD2B786D1C082C01DD082000E095
:103E00002046C2B2B1B2074800F004FA083C24B21E
:103E1000002CE7DC01E001200090FEF799FC0098FF
:103E200005B0F0BD0A000020F8B505460E4617465D
:103E3000002000903CB2FFF799FC12490870FEF791
:103E40008FFC30B2002817DBF019102814D8002C92
:103E500014DD082C01DD082000E02046C2B2314606
:103E6000084800F0C9F928706D1C083C24B20836D7
:103E7000B6B2002CEDDC01E001200090FEF768FCFA
:103E80000098F8BD0C000020FFB581B006460F4633
:103E9000144600200090FEF763FCFFF74FFC381932
:103EA00008282FD81B4880883D1A04981A490028F2
:103EB00002D0012828D10FE0002C25D068000A5A32
:103EC000120A3270761C085C3070761C6D1C641E01
:103ED000A4B2002CF2D117E0002C15D03078761C5B
:103EE00001020D4B680019523278761C0A431A52AF
:103EF0006D1C641EA4B239463046FEF79DFE002CB0
:103F0000ECD101E001200090FEF722FC009805B002
:103F1000F0BD00000400002054010020F8B5054663
:103F20000F4614460026FEF71BFCFFF741FC38192C
:103F3000082813D80C484088391A002C0FD00B4A97
:103F40004800135A1B0A2B706D1C105C28706D1CE6
:103F5000491C641EA4B2002CF2D100E00126FEF739
:103F6000F7FB3046F8BD00000400002044010020AB
:103F7000FDF7C4FBFEF77EFFFEF760FCFEF73AFCA0
:103F8000FEF7F6FBFEF714FDFF2140316348FEF714
:103F9000CDFFFF2501352A4661496248FEF7CAFA7E
:103FA000604800680168102211430160FDF718FCA9
:103FB00000215D48FCF78EFD5C4C012291032046F8
:103FC000FDF787FB5A4F012240213846FDF781FB60
:103FD000002269012046FDF77CFBFEF7B9FEFEF7E3
:103FE00073FBFEF759FBFCF7BFFDFFF7E1FB7F21F9
:103FF0005048FCF7FDF8FF20F530FDF7EBF94E4E89
:1040000000243470012211033846FDF762FB0022C0
:1040100004213846FDF75DFB0120FDF7DBF90520A3
:10402000002229460007FDF754FB0122D103384640
:10403000FDF74FFB0226414C03273E483E4D0078DA
:104040002978401C884210D100290ED0C1B23948CD
:10405000FFF7ACFC80213748FCF7CAF8FF2101319B
:104060002F48FCF7C5F800202870354D2878012826
:1040700002D000280AD012E02E7060787D21C9009D
:104080004843FDF7A7F9FFF793FB08E02F7060782E
:104090007D21C9004843FDF79DF9FFF789FB68784A
:1040A000012802D000280AD012E06E7060787D21CD
:1040B000C9004843FDF78EF9FFF77AFB08E06F70FF
:1040C00060787D21C9004843FDF784F9FFF770FB54
:1040D0001C48FEF73BFE1C490978884201D0FDF7D9
:1040E00071FB1A4908680268520852000260FF20FA
:1040F0000A680130506008680168012211430160BC
:1041000028786978084398D1FDF758FF01210846BF
:10411000FDF76EFBFEF7AEFE8FE70000FFFF00002D
:1041200064010020980000203800002000080050A2
:10413000000400507C03002001000020080500203E
:104140000400002000000808880400200801002066
:1041500070B508211848FEF705F8174E3068C16899
:1041600001221143C160154C002525706420FDF724
:1041700031F92078010612D58006800EC10F6A1E23
:104180000023FBF7F1FF626882186941A2600B46C9
:10419000E1600B480021FBF7C1FF608000E0658013
:1041A0003068016A074A114203D101684908490091
:1041B0000160608870BD00003804002020000020ED
:1041C000A08601001111000070B50A4DFF23EE1DFD
:1041D0001A46F93605E0047854402A5D5A40335DAA
:1041E000401C0C46491EC9B2002CF4D118021043E1
:1041F00070BD00006742000810B44B051B0EDC00C8
:10420000091B01249440641EE2B2C05CC840104007
:1042100010BC704770B4CC08E500491B8B400125E9
:1042200095406D1E8D40065D02195178090231439B
:10423000A94319430155080A507070BC704700002B
:10424000000001020304010203040607080900003C
:10425000000000000000010203040607080903042F
:1042600006080C1018203000C1814001C0804101B7
:10427000C0804100C1814001C0804100C181400037
:10428000C1814001C0804101C0804100C181400026
:10429000C1814001C0804100C1814001C080410115
:1042A000C0804100C1814001C0804100C181400007
:1042B000C1814001C0804100C1814001C0804101F5
:1042C000C0804100C1814000C1814001C0804101E6
:1042D000C0804100C1814001C0804100C1814000D7
:1042E000C1814001C0804101C0804100C1814000C6
:1042F000C1814001C0804100C1814001C0804101B5
:10430000C0804100C1814000C1814001C0804101A5
:10431000C0804100C1814001C0804100C181400096
:10432000C1814001C0804100C1814001C080410184
:10433000C0804100C1814001C0804100C181400076
:10434000C1814001C0804101C0804100C181400065
:10435000C1814001C0804100C1814001C080410154
:10436000C0804100C1814000C0C101C30302C2C678
:104370000607C705C5C404CC0C0DCD0FCFCE0E0A61
:10438000CACB0BC90908C8D81819D91BDBDA1A1E01
:10439000DEDF1FDD1D1CDC14D4D515D71716D6D2D1
:1043A0001213D311D1D010F03031F133F3F2323691
:1043B000F6F737F53534F43CFCFD3DFF3F3EFEFAA1
:1043C0003A3BFB39F9F83828E8E929EB2B2AEAEEE1
:1043D0002E2FEF2DEDEC2CE42425E527E7E6262211
:1043E000E2E323E12120E0A06061A163A3A2626671
:1043F000A6A767A56564A46CACAD6DAF6F6EAEAAE1
:104400006A6BAB69A9A86878B8B979BB7B7ABABE80
:104410007E7FBF7DBDBC7CB47475B577B7B6767250
:10442000B2B373B17170B050909151935352929650
:10443000565797559594549C5C5D9D5F9F9E5E5A20
:104440009A9B5B99595898884849894B8B8A4A4E60
:104450008E8F4F8D4D4C8C44848545874746868290
:1044600042438341818040008844000800000020CE
:10447000380000008C390008C044000838000020D3
:10448000D80800009C390008000000000505000065
:10449000000000000000000000000000000000001C
:1044A000000000000000000000000000000000000C
:1044B00000000000000000000000000080841E00DA
:04000005080000C12E
:00000001FF
