:020000040800F2
:1000000008090020D5000008DD000008DF00000816
:1000100000000000000000000000000000000000E0
:10002000000000000000000000000000E1000008E7
:100030000000000000000000E30000088D2F000811
:10004000E7000008752E0008E7000008E700000838
:10005000E70000088D0A0008E7000008A10A000870
:1000600000000000490A0008590A0008E7000008DB
:10007000E7000008E70000080000000099300008D1
:1000800000000000E7000008000000000000000081
:10009000E700000800000000E7000008E700000893
:1000A000E7000008E7000008E7000008E700000894
:1000B000E7000008D527000800000000000000004D
:1000C0000348854600F000FB00480047A5400008B3
:1000D000080900200448804704480047FEE7FEE77F
:1000E000FEE7FEE7FEE7FEE7FD2F0008C10000087F
:1000F00030B50B46014600202022012409E00D46C0
:10010000D5409D4205D31D469540491B2546954047
:1001100040191546521E002DF1DC30BDF8B5002403
:100120002546002904DA0E46012400214042B1414F
:10013000002B04DA1E46002352420125B34100F091
:10014000D1F98C4617461E46AC4203D000254042EA
:100150008D41AC46002C02D0002657429E4161469C
:100160003A46334601B0F0BDF0B51FB486B000206A
:100170000090019002900698069980B2049007982A
:10018000090C02040014114307900027089D0998E8
:1001900006913E463C4603900398A9B20204000C27
:1001A000039004982D0C154348430021224600F08B
:1001B000C9F9C719714110340E46402CECDB3846A2
:1001C000029A00F0BFF9009A019B801800905941F3
:1001D00002980191103002904028CCDB00980BB0BF
:1001E000F0BD03460B439B0703D009E008C9121F6B
:1001F00008C0042AFAD203E00B780370401C491CA3
:10020000521EF9D27047D2B201E00270401C491E62
:10021000FBD270470022F6E710B513460A460446A3
:100220001946FFF7F0FF204610BD024670B54A4060
:10023000D30FDB0740002DD04A002AD0010E140E48
:10024000000212020919400A520A8418E501044604
:100250005443000A120A2E045043A4194219200CD8
:10026000C543AA18120C0125AD03521C52191204E1
:100270007F39240400D0521C104301D44000491E91
:10028000C2B20C06C0092018401C4008802A02D0C7
:1002900003E0002070BD40084000002900DA002083
:1002A000184370BD70B502464A40D50F40004A0061
:1002B000ED0740085208002814D0002A12D0C40DBF
:1002C000D30D41020120C0055202490A520AE41A24
:1002D000091812187D34914201D3641C00E04900D2
:1002E000002C01DA002070BD0023914201D3891A4D
:1002F0000343400849000028F7D100290AD0914261
:1003000002D10121C90705E0914201D2012101E09A
:100310000121C943E005C018401900F034F970BD4F
:10032000420005D04200120E52428A4201DB0020F8
:100330007047C90508187047F0B50C465C4085B099
:10034000E40FE40703944C00002664085900944627
:10035000490802460296224321D062460A431ED033
:100360006200570D4A000E032303550D0124024677
:100370002C492405781B1B0B360B401823432643BE
:10038000614600901C46501AB44103D30098401CAB
:10039000009002E0921800985B41002803DA0020E8
:1003A000014605B0F0BD002001210905074686463B
:1003B00011E064461D46141BB54106D36546521B29
:1003C000B341744607430C43A646CD07400849088D
:1003D000284392185B4105460D43EAD11046184365
:1003E00013D06046194650407140084306D060461D
:1003F000101AB34106D20122002306E00022012395
:10040000DB0702E00122D243531000987446010535
:10041000381C6141029C039D0019694100F0F4F809
:10042000BFE70000FD03000070B54B005B0803430D
:100430000BD04B005C0D002633466542B341D41708
:10044000AD1AA34102DB0020014670BD1205301831
:10045000514170BD10B500229623114600F09BF863
:1004600010BD00000EB505490291002100910A4619
:100470000B46019100F0D5F803B000BD3304000035
:10048000410040020122400AD205090E80187F294E
:1004900001DA00207047962903DC9622511AC840E1
:1004A00070479639884070474A0009030123090BB9
:1004B0001B051943094B10B5520D9A4201DA002071
:1004C00010BD064B34339A4203DC9A1A00F04AF806
:1004D00010BD03495118884010BD0000FF03000003
:1004E000CDFBFFFFF0B51FB40646002082B00546E5
:1004F0004024019100901BE0019922460F463046AE
:1005000000F030F8049A059B801A994110D31046E8
:100510001946224600F016F8361A8F4101972246F6
:1005200001200021009F00F00DF838184D41009087
:100530002046641E0028DFDC019B009829463246D5
:1005400007B0F0BD10B5202A04DB0146203A9140E7
:10055000002010BD914020239C1A0346E34019431C
:10056000904010BD10B5202A04DB0846203AD04048
:10057000002110BD0B46D340D0402024A21A914048
:100580000843194610BD002904DA401C490001D176
:1005900040084000704770B40024050C05D11024B9
:1005A000000402D1002921D01124050E01D100023E
:1005B0000834050F01D10001241D850F01D18000F1
:1005C000A41C002801DB4000641C002908D0202561
:1005D0002E1B0D46F540A14000D0012129430843C0
:1005E00001061B1B000ADB1D02D5002070BC7047F2
:1005F000DB05181880180029F8DA401C4900F5D1ED
:1006000070BC40084000704710B5002B08DA002489
:10061000401C614192185B411A4301D140084000DF
:1006200010BDF0B51FB482B005460C0003D00846DB
:1006300003F051FA02E003F04EFA20300246009037
:1006400021462846FFF77EFF049B059A04460F4685
:1006500018431143084314D0184610431BD0009888
:1006600040210A1A18460599FFF77CFF05460E46F9
:10067000009A05990498FFF765FF084305D001200B
:1006800004E02046394607B0F0BD0020C1170543FD
:100690000E432C43374300990E986305401A7905A1
:1006A000E40A00220C43FD0A0A3002D5002001466C
:1006B000E9E70105101969410C9C0D9D001969417C
:1006C000FFF7A2FFDFE70000064C0125064E05E01C
:1006D000E36807CC2B430C3C98471034B442F7D363
:1006E000FFF7F2FC644500088445000870B5044635
:1006F00020688168490723D58168102549070029AA
:1007000005DA8168890702D481682943816001F094
:1007100065F8064620688068400711D501F05EF84C
:10072000801B0A2808D9A06D2843A065E06D01212F
:100730000843E065012070BD206880684007EDD463
:10074000002070BD10B50246906A816D5023194299
:100750000AD1816D01225202114381650168CA6884
:100760001205920F05D020E0006D416B10468847BE
:1007700010BD826A002A18D10A68120715D58A6846
:1007800001235207002A09DB4A680C24A2434A606D
:10079000816D1A0291431943816506E0816D202223
:1007A00011438165C16D1943C16500F0B7FA10BDF1
:1007B00010B5806A816D402211438165C16D0422AC
:1007C0001143C16500F0ACFA10BD10B5806A00F0AD
:1007D000A6FA10BD38B50446094808490068FFF775
:1007E00087FC604300900098002805D00098401EC8
:1007F000009000980028F9D138BD000040420F0059
:100800002C000020F8B50446206881688907890F0C
:10081000012930D10168C9072DD081680522114016
:1008200010250126012907D0A06D2843A065E06DA1
:100830003043E0650120F8BD8168022211438160E8
:1008400021680320086000F0C9FF0746206880681F
:10085000C00710D000F0C2FFC01B0A2807D9A06D46
:100860002843A065E06D3043E0650120F8BD2068B5
:100870008068C007EED10020F8BD0000F8B504463E
:10088000206881688907890F012902D10168C90799
:100890002ED18168174A102611400125002907D062
:1008A000A06D3043A065E06D2843E0650120F8BDF0
:1008B0008168294381600120FFF78CFF00F08EFFE3
:1008C000074620680068C043C00711D000F086FFCB
:1008D000C01B0A2807D9A06D3043A065E06D2843EE
:1008E000E0650120F8BD20680068C043C007EDD175
:1008F0000020F8BD1700008070B5012149020F4C9F
:100900004D1000280FD001280FD002280FD0032847
:1009100008D10122204600F05AFF01222946204634
:1009200000F055FF70BD002202E00022F2E7012234
:10093000204600F04CFF0022F0E7000000040050C9
:100940008AB210B501460123014801F0BBFE10BD7B
:100950009000002010B5044C8021204600F030FFAC
:100960000028F9D010BD00000004005070B5054605
:100970000C460020FFF7C0FF052000F09BFD21463C
:100980002846FFF7DDFFFFF7E5FF70BD70B596B0B5
:10099000054644221D4904A8FFF723FC1CA00FC8EC
:1009A0006C460FC44B20C00102F05CFF1C4C0120C0
:1009B00020770320FFF7A0FF1A4E8021304600F079
:1009C000FFFE0028F9D07D20C00000F073FD680014
:1009D0002A1804A8835C6946CB71101842780A7201
:1009E0008078487201230F220F4801F06BFEFF2030
:1009F000913000F05FFD00202077FFF77DFF4B2056
:100A0000400202F02FFF16B070BD00002045000824
:100A1000FF56AE35A95590069B68000705000600F5
:100A2000E0040020000400509000002010B5044CA9
:100A300004482178FFF7EEFB0020207010BD000075
:100A4000020000205C01002010B5024800F040FBCD
:100A500010BD0000F403002010B5024800F038FB80
:100A600010BD00000001002010B4046863608368BA
:100A7000102B05D0036899600068C26010BC7047F5
:100A800003689A600068C16010BC704710B501F03F
:100A9000E7FA012000F0DAFD022000F0D7FD10BDDA
:100AA00010B5102000F0D2FD802000F0CFFD012015
:100AB000C00300F0CBFD10BD1A498869C2051A4871
:100AC00003D5426908231A4342618A69920503D516
:100AD000426904231A4342618A69520503D5426977
:100AE00002231A4342618A69120503D54269102321
:100AF0001A4342618A69920403D5426901231A4369
:100B000042618A69920303D5426920231A434261F4
:100B10008A69D20303D5426940231A4342610348DC
:100B2000886170470020024068040020002F030005
:100B300070B5044600F052FE05461D4EB069C04334
:100B4000C0070ED1601C08D0002C04D000F046FE77
:100B5000401BA04201D9032070BDB069C043C0074B
:100B6000F0D0B069800701D50220B061B069C04300
:100B7000C00517D5B069C043800513D5B069C0431F
:100B800040050FD5B069C04300050BD5B069C0431F
:100B9000800407D5B069C043800303D5B069C04362
:100BA000C00303D4FFF788FF012070BD002070BD93
:100BB00000200240F8B50446002625464035287D31
:100BC000012808D001202875206881688907890FCD
:100BD00001290ED101E00220F8BD0168C90708D043
:100BE000A06D20210843A06501260020287530460D
:100BF000F8BDA16DFF220132914302221143A1658C
:100C0000816892071143816000F0E8FD0746206883
:100C10008068002812DA00F0E1FDC01B0A2809D91B
:100C2000A06D0221884310210843A065002028758B
:100C30000120F8BD206880680028ECDBA06D8008EA
:100C40008000401CA065D0E770B50C4C206AFF21E5
:100C500002310843206200F0C1FD0546206AC00051
:100C600009D400F0BBFD401B032801D9012070BD51
:100C7000206AC000F5D5002070BD000000000140D2
:100C8000F8B50C4605464035297D01290DD00121D6
:100C9000297501688A68520709D5816D20221143A0
:100CA0008165002028750120F8BD0220F8BD194B90
:100CB0006268D8054710184E9A4215D08A6A236890
:100CC0005B035B0B1A438A622168490305D5B1684F
:100CD0000143B1600A20FFF77DFD2068800315D530
:100CE000B0683843B06011E08A6A23685B035B0B2D
:100CF0009A438A622168490302D5B1688143B16091
:100D00002068800302D5B068B843B0600020287521
:100D1000F8BD000001100000002701407047704737
:100D20007047000070B50446002C06D0A06D254623
:100D300000264035002802D006E0012070BDE6659F
:100D40002E75204600F0D4F8A06DC00603D42068AC
:100D50008168490706D5A06D10210843A0652E754E
:100D6000012070BDA16DFF22013291430222114387
:100D7000A16581685B4A8907890F012902D1016851
:100D8000C9072BD1032361699B07994205D05B42B8
:100D9000994202D05B00994209D101698900890812
:100DA0000161206801696369194301610CE001690F
:100DB00089008908016190680F2189048843906047
:100DC00090686169084390602068C168182399435E
:100DD000C1602068C168A3691943C160906801219E
:100DE0004906884390609068A16C4906084390606A
:100DF00020688168C90004D4816801221207114368
:100E000081602068C168384A1140C160206A616A07
:100E1000022823D000200143A06AA26B40035200A5
:100E200010430143206C0143606C80030143E06C7C
:100E3000C00301432068C2681143C160206B0146B2
:100E4000FF39C23905D0616B08432168CA68104375
:100E5000C860E06A0121012802D00BE00420DAE733
:100E6000A06A002823D0A06D20221043A065E06D69
:100E70000843E0656068012820D020680169C9073F
:100E800003D0016949084900016120684169C90826
:100E9000C900416120684169E26911434161E66529
:100EA000A06D80088000401CA065002070BD2068F7
:100EB000C26801231B041A43C260DBE72068026991
:100EC0000A4B1A40026120680269A36825691A4327
:100ED000E3682B431A430261206802690A430261F6
:100EE000D3E70000002701401902FEFF03FCFF7F4B
:100EF000F0B585B0054614492868884222D11348C8
:100F0000416B47153943416328200090032001902D
:100F10000026029605206946000700F0A3FB0D4C51
:100F20000B4820606660A660E660802020616761F3
:100F30000001A0612020E0612662204600F0FAF95D
:100F40002C65A56205B0F0BD0024014000100240F0
:100F500008000240F4030020F7B50446002520688D
:100F6000806840073FD426464036307D01280BD0AC
:100F700001273775E06C012803D02046FFF77EFC7F
:100F80000546002D03D02FE0022003B0F0BDA06D78
:100F900017490840FF2101310843A0650020E065A2
:100FA0003075216D1348C862216D13480863216DA7
:100FB0001248486321681C2008602068416810229C
:100FC000114341602068C1683943C1602168206DC8
:100FD0004031029B019A00F045FA206881680422A2
:100FE0001143816000E00225284603B0F0BD0000F7
:100FF000FEF1FFFF45070008CB070008B107000816
:10100000F8B5044626464036307D012808D0012731
:1010100037752046FFF76AFB0546280002D028E016
:101020000220F8BD2068C16849084900C160206DF0
:1010300000F023F80546280003D0A06D40210843A6
:10104000A06520684168102291434160002D05D0C1
:101050002046FFF7D7FB002D05D00AE02046FFF71A
:10106000D1FB0546F7E7A06DFF21013188433843E6
:10107000A065002030752846F8BDF8B50446206804
:10108000016849084900016000F0A8FB0646206895
:1010900000682546C00700272035002812D000F040
:1010A0009DFB811B7D20C000814207D9A06B2021C0
:1010B0000843A0632F7103206871F8BD20680068A1
:1010C000C007ECD12F71012068710020F8BD00002D
:1010D000F8B5044690480268904920680B04904E89
:1010E000904F884201D108211BE0B04201D18021FC
:1010F00017E0B84202D10121C90212E08A498842B0
:1011000002D10121C9030CE08849884201D1194666
:1011100007E08749884202D10121C90501E0012188
:10112000C90625460A402035002A37D0016809073C
:1011300034D50168082291430160784920688842CB
:1011400001D108201BE0B04201D1802017E0B84255
:1011500002D10120C00212E07349884202D101206D
:10116000C0030CE07149884201D1184607E070497C
:10117000884202D10120C00501E00120C006664975
:101180004860A06B01210843A0630420687100201F
:101190002871616B002901D0204688475E480268AB
:1011A0005E4920680B15884201D104211BE0B04242
:1011B00001D1402117E0B84201D1194613E05A4944
:1011C000884202D1012189030DE05849884202D1A9
:1011D0000121890407E05649884202D1012189058D
:1011E00001E0012189060A4234D00168490731D55E
:1011F0000168890603D4026804218A4302604749D2
:101200002068884201D104201BE0B04201D1402077
:1012100017E0B84201D1184613E04349884202D191
:10122000012080030DE04149884202D10120800461
:1012300007E03F49884202D10120800501E00120FA
:1012400080063549486005206871216B002901D06E
:101250002046884730480268304920684B1588424C
:1012600001D102211BE0B04201D1202117E0B84298
:1012700001D1194613E02C49884202D101214903CA
:101280000DE02A49884202D10121490407E028499A
:10129000884202D10121490501E0012149060A42A3
:1012A00038D00168890735D50168890603D40168FB
:1012B00002229143016019492068884201D102202D
:1012C0001BE0B04201D1202017E0B84201D11846FE
:1012D00013E01549884202D1012040030DE0134973
:1012E000884202D10120400407E01149884202D11E
:1012F0000120400501E00120400607494860A06B3D
:10130000A0630120687100202871E16A002901D0E2
:1013100020468847F8BD0000000002400800024057
:101320001C000240300002404400024058000240CD
:101330006C00024070B4002805D00246203251797A
:10134000002903D004E070BC012070470021117116
:101350000221517101680C683A4B1C40C5688368D2
:1013600046692B43056935432B4385692B43C56982
:101370002B43056A2B4323430B60334C0168334BEB
:10138000A14208D1996A090909019962996A4068DC
:101390000143996250E02E4CA14209D1996AF02490
:1013A000A1439962996A406800010143996243E050
:1013B000284CA1420AD1996A0F242402A1439962C0
:1013C000996A406800020143996235E0224CA142CB
:1013D0000AD1996A0F242403A1439962996A40684B
:1013E00000030143996227E01C4CA1420AD1996A8B
:1013F0000F242404A1439962996A80880004014360
:10140000996219E0164CA1420AD1996A0F24240569
:10141000A1439962996A80880005014399620BE0B3
:10142000994209D1996A0F242406A1439962996AC5
:1014300000790006014399620120507170BC0020C0
:10144000704700000FC0FFFF08000240800002400C
:101450001C0002403000024044000240580002409C
:101460006C000240F8B50446204620300579012D75
:101470001ED0012505710226467120680768AF431A
:1014800007602046FFF7F0FA2068016831430160E9
:101490002068016804221143016020680168082265
:1014A0001143016020680168294301600020F8BDF4
:1014B0000220F8BD31B500F091F9044600F08EF934
:1014C0000099001B8842F9D338BD000003484168E9
:1014D00001221143416000207047000000200240BB
:1014E000F8B505460E461446104F387C012807D043
:1014F000012038740E48FFF71BFB002802D012E0D1
:101500000220F8BD00207861022D04D0012D04D006
:10151000002D04D004E0346002E0348000E0347038
:101520000348FFF705FB00213974F8BD680400206B
:1015300050C3000005484168C90705D00449C1608F
:101540000449C1600020704701207047002002401C
:10155000EFCDAB8905040302F8B504460027012648
:10156000012C1ED11420FFF7A5FF334D0121284681
:1015700000F026F9002814D17D20C000FFF79AFF63
:101580000121284600F01CF900280AD12B4D687F64
:10159000002838D02A48C07BFFF7F8F96F7701F0B0
:1015A00045F9102C01D0022C2CD105252D07022144
:1015B000284600F005F9234C00282BD0102128469E
:1015C00000F0FEF8002834D0E7701F480078207043
:1015D00002206070A67004211A4802F051FE010A30
:1015E000617120710020FFF787F91420FFF762FF77
:1015F00006211448FFF7A4F9FF20F530FFF75AFF42
:1016000002F080F9F8BD1520FFF7C0F96E7701F000
:1016100015F9C6E7FF20F530FFF74CFF10212846EB
:1016200000F0CEF8002801D0E670CEE70920E07087
:10163000CBE70820E070C8E7001C0050E004002061
:10164000A0040020F40200208004002010B504490A
:101650004A69024202D04861FFF77EFF10BD0000D8
:1016600000040140F0B400220B68002B70D001246C
:1016700094400B68A4462340002B6AD04C68022C8F
:1016800001D0122C0CD1D408A40027183D6A5407AD
:10169000E40E0F26A640B5430E69A6402E433E62D7
:1016A0004C68012C05D0022C03D0112C01D0122C37
:1016B00011D1856854000326A640B543CE68A640E4
:1016C0002E43866044686546AC430D79ED06ED0F08
:1016D000954025434560076854000325A540AF4366
:1016E0000E79B607B60FA6403E430660C668AE4305
:1016F0008D68A5403543C5604C68E4004BD5294C46
:10170000656B0126354365639508274CAD002F199D
:10171000BD689407240F0F26A640B543052636075B
:10172000B04201D1002616E0204EB04201D1012680
:1017300011E01F4EB04201D102260CE01D4EB04216
:1017400001D1032607E01C4EB04203D1052602E07A
:1017500026E020E00626A6402E43BE60174D2C68EA
:101760009C434E68F60300D51C432C606C689C4378
:101770004E68B60300D51C436C60AC689C434E6851
:10178000F60200D51C43AC60EC689C434E68B60280
:1017900000D51C43EC60521C0B68D34000D066E7B8
:1017A000F0BC7047001002400000014000040050EF
:1017B00000080050000C0050001C005000040140C4
:1017C0000069084201D00120704700207047002ABC
:1017D00001D0816170478162704700000148006854
:1017E000704700002800002002480168491C016081
:1017F000704700002800002010B50648016840220C
:1018000011430160002000F007F800F017F80020F5
:1018100010BD00000020024010B5044600F058F949
:101820007D21C900FEF764FC00F024FC0022214663
:10183000501E00F023F8002010BD000010B509482C
:10184000416B01221143416300221146501E00F0FA
:1018500015F801210022084600F010F8012000F0E0
:1018600003F810BD00100240C106C90E01208840D7
:10187000014908607047000000E100E08207D30ED4
:10188000FF229A408907090E994000280BDA0007C9
:10189000000F0838830808489B001818C369934351
:1018A0000B43C3617047830804489B001818036802
:1018B00093430B430360704700ED00E000E400E059
:1018C000BFF34F8F04490348C860BFF34F8F00BF79
:1018D000FDE700000400FA0500ED00E002480168A1
:1018E0004215114301607047007000400A4B1A68AE
:1018F0009208920002431A600848026904231A43BE
:101900000261012906D040BF20BF20BF0169994371
:101910000161704730BFF9E70070004000ED00E062
:101920007047000010B5054C6069C00304D5FFF78F
:10193000F7FF01200004606110BD000000040140B9
:10194000F8B504460E465F480068C007C00FB042B5
:101950000CD25C48016849084900314301600068C5
:10196000C007C00FB04201D00120F8BD2078564F0B
:10197000800705D5F868F0218843A1680843F8601E
:101980002078C00772D06068022808D000280BD0E9
:1019900003280ED03968490710D40120F8BD3968F2
:1019A00089030BD40120F8BD3968890506D40120CC
:1019B000F8BD3968890101D40120F8BDF9688908AA
:1019C00089000143F960FFF709FF054661680229B4
:1019D00010D0032921D0002932D0F9680907890FD6
:1019E000012943D0FFF7FAFE411B3848814238D91C
:1019F0000320F8BDF9680907890F022936D0FFF7DF
:101A0000EDFE411B3148814201D90320F8BDF86841
:101A10000007800F0228F2D128E0F9680907890F32
:101A2000032923D0FFF7DAFE411B2848814201D960
:101A30000320F8BDF8680007800F0328F2D115E0F5
:101A4000F9680907890F11D0FFF7C8FE411B1F482D
:101A5000814201D90320F8BDF8680007800FF3D157
:101A600004E0F8680007800F0128BBD11548016821
:101A7000C907C90FB1420BD3016849084900314376
:101A800001600068C007C00FB04201D00120F8BD5E
:101A90002078400706D5F868072109028843E168E5
:101AA0000843F8602078000707D5F8680721C902C5
:101AB00088432169C9000843F8600020FFF7ACFEA5
:101AC0000020F8BD002002400010024088130000F2
:101AD00010B500F031F80549C968054A0906090F33
:101AE000515CC8400349086010BD0000001002406E
:101AF000F64200082C00002010B5FFF7E9FF04496A
:101B0000C968044A4905490F515CC84010BD00002E
:101B100000100240F642000810B5FFF7D9FF044953
:101B2000C968044A8904490F515CC84010BD0000CF
:101B300000100240F642000810B5214B586800041E
:101B4000420FD9680C2001401E4808D0042909D052
:101B500008290ED00C290ED0521C904010BD521CEA
:101B6000904010BD1868C00601D5174810BD174831
:101B700010BD174810BDD8680F2189040840D968E6
:101B8000032292051140820C1248805C890D491C89
:101B9000DA68012424042240002A04D00C4A50436D
:101BA000FEF7A6FA10BD1A68D20604D5064A5043BD
:101BB000FEF79EFA10BD054A5043FEF799FA10BD94
:101BC000001002400080000000093D000024F400E5
:101BD00000127A0016430008F0B583B0044620785E
:101BE000C0075ED0FC4EF0680007800F022807D0C7
:101BF000F0680007800F03280BD1F068C00308D5F8
:101C0000306880034DD5606800284AD1012003B0B8
:101C1000F0BD012160680904884203D1306808439F
:101C2000306018E0052301221B049204984209D178
:101C30003068884330603068104330603068084353
:101C4000306008E0306888433060306808400190B8
:101C50003068904330606068002811D0FFF7BEFD07
:101C60000546306880031CD4FFF7B8FD401B64288C
:101C700002D9032003B0F0BD30688003F4D510E032
:101C8000FFF7ACFD0546306880030AD5FFF7A6FDD7
:101C9000401B642802D9032003B0F0BD30688003E4
:101CA000F4D42078800753D5CB4EF0681F27000767
:101CB000800F3F02012807D0F0680007800F03283B
:101CC00012D1F068C0030FD43068400705D5E06832
:101CD000012802D0012003B0F0BD70682169B8432B
:101CE00009020843706033E0E068092100281BD036
:101CF00032688A4302433260FFF770FD0546306860
:101D000040070AD4FFF76AFD401B022802D90320CE
:101D100003B0F0BD30684007F4D570682169B8435E
:101D200009020843706013E0306888433060FFF7B1
:101D300055FD0546306840070AD5FFF74FFD401BAB
:101D4000022802D9032003B0F0BD30684007F4D464
:101D50002078C00659D5A04EF068A04F0007800F2C
:101D600014D0A06900283AD03168B0150143316021
:101D7000FFF734FD05463068800523D4FFF72EFDBC
:101D8000401B02281BD9032003B0F0BD306880053A
:101D900002D5A06900280FD07068216AB8430843B3
:101DA00070607068217F0002000A090608437060B5
:101DB0000020FFF731FD28E0012003B0F0BD3068BE
:101DC0008005DBD57068216AB8430843706070688D
:101DD000217F0002000A09060843706015E031689F
:101DE000FF20013081433160FFF7F8FC0546306881
:101DF00080050AD5FFF7F2FC401B022802D9032018
:101E000003B0F0BD30688005F4D42078744D00072D
:101E10002DD56069002815D0286901210843286163
:101E2000FFF7DCFC06462869800720D4FFF7D6FCC4
:101E3000801B022802D9032003B0F0BD2869800767
:101E4000F4D514E02869400840002861FFF7C6FC7B
:101E50000646286980070AD5FFF7C0FC801B0228C8
:101E600002D9032003B0F0BD28698007F4D420789C
:101E7000400770D5002600275748806BC00005D466
:101E80005548826B01040A43826301265548006865
:101E9000C0051BD453480068FF2101310843514954
:101EA00008600127FFF79AFC02904E480068C005C1
:101EB0000CD4FFF793FC0299401A642802D903203E
:101EC00003B0F0BD47480068C005F2D5A068C11F47
:101ED000F93912D001229202002814D005210902FA
:101EE000884219D1296990108143296129691143D8
:101EF000296129690143296116E02869FF2101311F
:101F00000843286110E02869FF21013188432861D6
:101F100028699043286107E02969FF200130814347
:101F20002961286990432861A068002814D0FFF730
:101F300055FC02902869800521D4FFF74FFC0299D7
:101F4000411A2948814202D9032003B0F0BD286913
:101F50008005F2D513E020E0FFF740FC02902869ED
:101F600080050CD5FFF73AFC0299411A1E488142C0
:101F700002D9032003B0F0BD28698005F2D4012FF7
:101F800004D11848026881158A430260012E04D1E9
:101F90001148826B01048A438263606A00285AD028
:101FA0000D4DE9680907890F032956D001273F061F
:101FB00002281BD02868B8432860FFF70FFC0446AE
:101FC0002868800147D5FFF709FC001B02283FD98C
:101FD000032003B0F0BD00000010024000E000004C
:101FE0004010024000700040881300002868B84389
:101FF0002860FFF7F3FB06462868800109D5FFF744
:10200000EDFB801B022801D90320E2E7286880014C
:10201000F5D4216BE06AEA680843A16AFD231B043A
:102020009A4311430843E860286838432860FFF763
:10203000D5FB0446286880010DD4FFF7CFFB001BB9
:10204000022801D90320C4E728688001F5D502E001
:1020500028688001B7D40020BBE70120B9E7000061
:1020600002480169022211430161704700E000E06B
:102070007047000010B40B49401E884202D910BCC2
:10208000012070470849486108480723C2691202C5
:10209000120A4C042243C261002088610B6110BC0B
:1020A00070470000FFFFFF0000E000E004ED00E0EB
:1020B00010B5FFF7DDFF10BD024801690222914310
:1020C0000161704700E000E010B5124C2078010675
:1020D00009D4410608D580210843207008210E4804
:1020E00000F098F9606010BD00226260402020700E
:1020F00009490868036A094C234203D103685B0855
:102100005B000360086842620868016801221143AD
:10211000016010BD180000203004002011110000E3
:10212000F8B505460C462E462036307D012820D0D5
:1021300001203075022070750C27002A1BD0042A5C
:1021400029D0082A3AD0E36862682168286801F03B
:1021500041F82868C1693A029143C1612868C169A0
:10216000A26812021143C161012070750020307510
:10217000F8BD0220F8BDE36862682168286800F0B5
:10218000C9FF28688169B943816128688169A268AB
:1021900011438161E8E7E36862682168286800F01C
:1021A000E3FF2868816903229202914381612868D4
:1021B0008169A268120211438161D5E7E368626810
:1021C0002168286800F0EBFF2868C169B943C16144
:1021D0002868C169A2681143C161C5E770B50446AA
:1021E000002C05D025462035687D002802D006E069
:1021F000012070BD00202875204600F00BF8022059
:102200006875211D206800F04FFF012068750020CF
:1022100070BD000000B587B01048826B01210A43F1
:102220008263C26A0A43C262C06A08400190042005
:10223000029002200390049003210591069005204E
:1022400002A90007FFF70EFA002202210F20FFF774
:1022500015FB0F20FFF708FB07B000BD0010024080
:1022600010B504462268002906D0042909D008299F
:102270000CD00C2913D10EE0D06802231843D06093
:102280000DE0D06804231843D06008E0D06808232C
:102290001843D06003E0D06810231843D0600122B7
:1022A000206800F02BFF20680168012211430160C3
:1022B000002010BD70B50446206801690025C9439F
:1022C0008907002916DBC168C943890712D4E91EB2
:1022D00001610120207520688069800703D02046B5
:1022E000FFF7F2FE05E0204600F07BF8204600F004
:1022F00079F8257520680169C943490718D4C16870
:10230000C943490714D40421C9430161022020753F
:10231000206880698005800F03D02046FFF7D4FE37
:1023200005E0204600F05DF8204600F05BF82575DA
:1023300020680169C943090717D4C168C94309075F
:1023400013D40821C9430161042020752068C069A5
:10235000800703D02046FFF7B7FE05E0204600F0D7
:1023600040F8204600F03EF8257520680169C94311
:10237000C90618D4C168C943C90614D41021C94379
:102380000161082020752068C0698005800F03D096
:102390002046FFF799FE05E0204600F022F820468F
:1023A00000F020F8257520680169C943C90708D1E4
:1023B000C168C943C90704D1891E0161204600F0E4
:1023C00013F820680169C943490609D4C168C943A3
:1023D000490605D44021C9430161204600F03FF879
:1023E00070BD70477047000009490878020606D49E
:1023F000420604D5C243920602D0401C08707047C2
:102400008022104308700020C043486070470000DD
:102410001800002010B40022034620331C7D012C3C
:102420000AD001241C75002909D004290AD00829E2
:102430000BD00C290ED10BE010BC022070470068B5
:10244000426B07E00068826B04E00068C26B01E049
:102450000068026C0020187510BC10467047704769
:102460007047704770B504462068C1692546C907A2
:1024700001266035002907D00168C90504D5066228
:10248000E06E3043E0666E722068C16904228B07FB
:102490000221002B07DA8368DB0704D00162E06EBB
:1024A0001043E0666E722068C3695B0707D58368D6
:1024B000DB0704D00262E06E0843E0666E722068BB
:1024C000C169090708D58168C90705D008210162DB
:1024D000E06E0843E0666E72E06E002802D020468F
:1024E000FFF7BFFF2068C169C90209D581684902A9
:1024F00006D50121090501626E722046FFF7B0FF83
:102500002068C169890605D50068800602D5204685
:1025100000F056FF2068C169090605D5006800066D
:1025200002D5204601F0F8F82068C169490605D5B2
:102530000068400602D5204600F02EFF70BD70B541
:102540000446002C05D025466035687A002802D064
:1025500006E0012070BD00202872204600F024F81B
:10256000022068722068016849084900016020461D
:1025700000F072FF606A002802D0204600F048FE9A
:10258000206841680922D202914341602068816835
:102590002A22914381602068016801221143016071
:1025A000204600F09BFE70BD30B585B005461B4946
:1025B0002868884230D11A48816B01229204114365
:1025C000816303208002009002200190012002908C
:1025D000032003900420049069461248FFF742F854
:1025E000124C11482060052060600020A060E0606F
:1025F000802121616061A0612021E161206220468B
:10260000FEF798FE6C66A562002201211D20FFF7EF
:1026100035F91D20FFF728F905B030BD004800400E
:102620000010024000040050300002400001002071
:10263000F7B50446134625466035687A012805D06B
:10264000687A122802D0022003B0F0BD019A002A55
:1026500027D0002B25D0287A012825D001202872E8
:102660006265582003530026E666687A12281ED059
:1026700022206872616E0F48C862616E0E4808635E
:10268000616E0E4848632168606E2431FEF7EAFEF1
:10269000206881684022114381602E72002003B0BF
:1026A000F0BD012003B0F0BD022003B0F0BD322028
:1026B0006872DFE7573300088F33000835330008AE
:1026C00070477047FFB581B005460C462E46603610
:1026D000707A012805D0707A222802D0022005B035
:1026E000F0BD002C1FD0002A1DD0307A01281DD04B
:1026F000012030720020E866707A222819D012205A
:1027000070722F4640373A827A82788A401E7882E9
:10271000002280212846049B01F036F800280BD0C7
:10272000032005B0F0BD012005B0F0BD022005B0CA
:10273000F0BD32207072E4E70120A96800038142F5
:1027400002D12869002811D0296820788862641C89
:10275000788A0028D9D1002240212846049B01F024
:1027600013F8002809D0032005B0F0BD208829689F
:10277000C005C00D8862A41CEAE7707A322805D033
:10278000012070720020307205B0F0BD22207072FE
:10279000F8E7704707480849007808800748027C36
:1027A0004A80C27BCA80407C88800548C0880881F6
:1027B00070470000800400204C010020A00400208D
:1027C000C004002000210020014A11805080704781
:1027D0003C01002010B512480068C169C906CA0F43
:1027E000016810231940002A15D0002913D0036274
:1027F0000C4A106801684908490001601068436884
:10280000FF210131084CCB1A237041601068016828
:102810000122114301600248FFF724FE10BD0000B1
:1028200090000020000100200200002010B50520CB
:10283000002201210007FEF7CAFF10BD10B50122DA
:10284000052011460007FEF7C2FF10BD00B583B09A
:102850001E481D4901600021416003229207426128
:1028600081610622C2610122026241628162C1620B
:10287000416381630422C263016441648164C16471
:10288000FEF750FA12480090C013019069460F48B5
:10289000FEF7F6F90F48009069460C48FEF7F0F98C
:1028A0000D48009069460948FEF7EAF90B48009088
:1028B00069460648FEF7E4F909480090694603486E
:1028C000FEF7DEF903B000BD002401403000002017
:1028D000040000080800000C200000140000044858
:1028E0000000024408B50C48016B0122114301634A
:1028F000006B10400090002211460920FEF7BEFF39
:102900000920FEF7B1FF002211460A20FEF7B6FFAC
:102910000A20FEF7A9FF08BD00100240F0B587B0FD
:102920005148C26A04210A43C262C26A0A40019243
:10293000C16A80273943C162C16A39400191C16AC5
:1029400001252943C162C16A29400191C16A022659
:102950003143C162C06A3040019003246403002205
:1029600021464248FEF733FF052000224049000778
:10297000FEF72DFF00223F493F48FEF728FF029453
:10298000039500240494059402A93848FEF76AFED2
:10299000E803029039480390049402A93348FEF7F3
:1029A00061FE029536480390049402A93548FEF76B
:1029B00059FE029603200390049402A93148FEF7C1
:1029C00051FE2B480290039504940594052002A91A
:1029D0000007FEF747FE122002902B480390049454
:1029E000052002A90007FEF73DFE284802900320BB
:1029F00003900494052002A90007FEF733FE1B2074
:102A0000029003200390049402A91B48FEF72AFEBB
:102A10001F48029003950494059402A91648FEF7F6
:102A200021FE2020029003950494059602A91248E5
:102A3000FEF718FE029712480390049402A90E486C
:102A4000FEF710FE002203210520FEF717FF0520E8
:102A5000FEF70AFF002203210720FEF70FFF0720E1
:102A6000FEF702FF07B0F0BD001002400008005062
:102A7000011F000064F3000000040050000011106A
:102A800000002110001C005000003110C080000028
:102A900044F3000010B50A48084901604B2149027F
:102AA000416000218160C16001610C22426181614D
:102AB00001624162FFF743FD10BD00000048004085
:102AC00090000020F8B50F4606460121002000F0D6
:102AD00041F90221002000F03DF96420FEF7EAFCF4
:102AE00005252D07884C012E0AD0002E7DD100220D
:102AF00040218648FEF76BFE207C002876D0B4E0AB
:102B0000002240218148FEF762FE207C002811D07F
:102B100000260AE0012220217C48FEF758FE002210
:102B200020217A48FEF753FE761C207C78494843E2
:102B3000B042EFD8754E012211033046FEF747FE32
:102B4000002204213046FEF742FE01224021304699
:102B5000FEF73DFE012F06D0022F0CD0032F12D01E
:102B6000042F2AD11CE00121002209032846FEF788
:102B70002EFE0122ABE00121002289022846FEF749
:102B800026FE0122ACE0FF21002201312846FEF79B
:102B90001EFE0122D1033046FEF719FE0120B1E0EE
:102BA0000121002289033046FEF711FE0122510364
:102BB0003046FEF70CFE012080E0207C002802D089
:102BC0006420FEF777FC607C002803D06421484332
:102BD000FEF770FC01242403002221463046FEF754
:102BE000F6FD00220421304601E027E042E0FEF736
:102BF000EEFD012F0DD0022F14D0032F1FD0042F74
:102C00001CD10022A1003046FEF7E1FD0022610048
:102C10001EE0002221462846FEF7D9FD00220121B0
:102C2000C90208E00121002289022846FEF7CFFDF3
:102C30000022012149022846FEF7C9FDF8BDFF2107
:102C4000002201312846FEF7C2FD00220121C903FE
:102C50003046F1E7012220212C48FEF7B8FD002282
:102C600020212A48FEF7B3FD761C207C28494843E2
:102C7000B042EFD8254E0121002209033046FEF76D
:102C8000A6FD012204213046FEF7A1FD01224021CC
:102C90003046FEF79CFD012F13D0022F1AD0032FD0
:102CA00024D0042F89D1012291033046FEF78FFDF5
:102CB0000022F9023046FEF78AFD0020154908700F
:102CC0007BE7012211032846FEF781FD0022012146
:102CD000C90207E0012291022846FEF778FD002292
:102CE000012149022846FEF772FD66E70122110222
:102CF0002846FEF76CFD01210022C9033046FEF78D
:102D000066FD00200449DAE7A0040020000400501A
:102D100010270000010000200000002002781202AD
:102D200040781043094A0A4B012905D0022902D1F3
:102D3000C82808D8507470470F2801D810747047FD
:102D4000107C18807047507C58807047A004002089
:102D50004C010020F8B5052501272D073F03434C02
:102D60000E4601281CD000286AD100223946204690
:102D7000FEF72DFD002204212046FEF728FD012E3E
:102D800053D0022E5DD0032E66D0042E58D10022DF
:102D900021012046FEF71BFD0022F10220464DE0F6
:102DA000002239462046FEF712FD0122042120466A
:102DB000FEF70DFD012240212046FEF708FD012E01
:102DC00006D0022E0DD0032E1CD0042E14D122E0EA
:102DD000012239462846FEF7FAFC00220121C902E9
:102DE00007E0012291022846FEF7F1FC00220121B2
:102DF00049022846FEF7EBFC1D48FEF75BFB01226B
:102E00004021CBE7012211022846FEF7E0FC002218
:102E10000121C90307E0012291032046FEF7D7FCF8
:102E20000022012149032046E4E7002239462846D2
:102E3000FEF7CDFC00220121C9020BE0FEF7C7FC22
:102E4000F8BD0121002289022846FEF7C0FC0022BD
:102E5000012149022846F1E7FF21002201312846DD
:102E6000FEF7B5FC00220121C90397E700040050DA
:102E7000B80B000010B5FEF755FD10BD0078704787
:102E800018480178F72900D9002117480170154921
:102E9000491C09780F2900D90021134A20321174E6
:102EA0001049891C0978C82900D9002151740D499D
:102EB0000D4B091D0978603399770A49C91C0978B7
:102EC000152900D90021D1730121017407490A692C
:102ED00042604A698260496AC160034800218030CB
:102EE0000170704700000808800400204000F81FAF
:102EF00070B50E46044601F0C3F900283ED1207893
:102F0000FF283BD16078FF2838D1A178002935D03F
:102F1000F72933D8E2780F2A30D82079C8282DD85D
:102F2000C2422BD06079152828D8082E26D1144803
:102F3000134D0170E0782035287420796874607929
:102F4000E873104800F0BAFD0E48297C401C00F0E0
:102F5000B5FD0C48697C801C00F0B0FD0948E97B98
:102F6000C01C00F0ABFD31462046FDF7FFFCFDF72D
:102F70005DFD0548FEF79EFAFEF7A2FC70BD00005D
:102F80008004002000000808B80B000010B5FEF710
:102F90002BFCFFF78DF810BD10B592B01548816B72
:102FA000020411438163144801680322D202914351
:102FB000C2148918016002200090002401940121AC
:102FC000039109900A9440040B9000010C9010208A
:102FD00004906846FEF700FE0F200D9003200E902F
:102FE0000F941094119401210DA8FEF7A9FC12B0C2
:102FF00010BD000000100240007000401048016841
:10300000821511430160C1680E4A1140C160016818
:103010000D4A1140016081684908490081600168DA
:103020000122920491430160C168FD221204914380
:10303000C160002101610549C0038860704700003C
:10304000001002400C40FF88F6FFF6FE00ED00E0A5
:1030500070B584B001220F4C920722606160002598
:10306000A560E06025612046FFF7B8F800950126CD
:10307000019602950395082269462046FFF750F80D
:1030800008212046FFF7ECF82068C1683143C16091
:1030900004B070BD3004002010B50248FFF70AF9F3
:1030A00010BD000030040020F0B402680124A40721
:1030B000104D114EA04203D0A84201D0B04204D11D
:1030C00070271346BB434A681A43A04203D0A84264
:1030D00001D0B04204D103231B029A43CB681A43A8
:1030E00002608A68C2620968816201214161F0BCA4
:1030F00070470000000801400014014010B4012393
:103100008B40046A9C430462036A8A40134303624F
:1031100010BC704770B4046A640864000462846977
:10312000056A0126B607B04205D00D4EB04202D066
:103130000C4EB04203D1A408A400144303E0A40839
:10314000A40001221443F02294431A07120E2243D2
:103150000A239D43194029438261016270BC704774
:10316000000801400014014070B4046A1025AC430B
:1031700004628569046A03263602B54312022A43B3
:103180000F252D03AA431B071B0C1343A0229443B6
:103190000901114021438361016270BC704730B462
:1031A000046AFF250135AC430462C469056AA408BA
:1031B000A4001443F02294431A07120E224305235D
:1031C0005B029D430A23194009022943C26101623F
:1031D00030BC704770B4046A01252D03AC4304620F
:1031E000C569046A03263602B54312022A430F2535
:1031F0002D03AA431B071B0C1343052252039443C0
:103200000A22114009032143C361016270BC704767
:1032100010B4818CC90707D001684A6801235B0498
:103220009A43836A1A434A60818C890707D50168EB
:103230004A6801231B049A43C36A1A434A60818C7B
:10324000490707D501684A6801239B049A43036B29
:103250001A434A60818C090707D501684A6801232F
:10326000DB039A43436B1A434A60818CC90607D536
:1032700001688A6801231B039A43836B1A438A609F
:10328000818C890607D501688A6801235B039A430C
:10329000C36B1A438A60818C490612D501684B685A
:1032A00001221205046C934323434B60016C91424D
:1032B00007D101684A6803235B059A43436C1A43AC
:1032C0004A60818C090607D501684A680123DB043E
:1032D000806C9A4302434A6010BC704770B5044644
:1032E00020680068124D00070AD501212B460022F4
:1032F0004905204600F048FA002801D0032070BD9F
:103300002068006840070AD501212B460022890564
:10331000204600F039FA002801D0032070BD0021BA
:10332000204660300172E16601214172002070BDCB
:10333000F055000010B5806A0022014640314A83F2
:103340004A82012269210A54C16E10221143C166CA
:10335000FFF787F810BD10B50146886A096809684B
:1033600089060ED400225A210A5201688A68402335
:103370009A438A60014660314A7A322A04D0012297
:103380004A72FFF79DF910BD12224A72F9E710B593
:10339000806AFFF796F910BD10B501680A684023EE
:1033A0009A430A60014660314A7A322A05D00122E6
:1033B0004A72FFF7EEF9002010BD22224A72F8E7A8
:1033C00070B502464032938B014660314C7A222C14
:1033D00004D04C7A322C01D0022070BD01258468C3
:1033E0002D03AC4202D10469002C0ED00468646A3B
:1033F0001C40436D5D1C45651C70538B5B1E1B049C
:103400001B0C53830AD0002070BD446D05686D6AA3
:103410001D402580436D9B1C4365EEE70268D36920
:103420009B06FCD413682024A34313604A7A322AF3
:103430000FD002681368E400A34313600268936826
:103440005B085B00936001224A72FFF739F90020A4
:1034500070BD12224A72F8E7F8B504460020002138
:10346000A04B22682669A568E769354366693E4333
:10347000354316689C4F3E402E43166022685568BF
:1034800003263603B543E66835435560A2692568CF
:103490009D4201D0266A3243AE680B273F02BE43ED
:1034A0001643AE60914E2568914AB54212D1D2685A
:1034B0009207920F06D0012A08D0022A04D0032ACC
:1034C0002CD105E0012029E0022027E0042025E09E
:1034D000082023E0874EB54210D1D2680C26324036
:1034E0001CD0042A06D0082A02D00C2A16D103E0E8
:1034F000022013E0042011E008200FE09D420DD1CE
:10350000D2680326B602324008D00126B602921BCA
:103510001ED0921B1AD0B24200D10820764A9D429A
:103520005FD1002816D0022829D0042844D00828CA
:103530000BD16068FCF796FF02460B4600206F49EE
:10354000FCF7FAFEFCF7B0FFE860F8BD0220E5E703
:103550000420E3E76068FCF785FF05460E46FEF7AA
:10356000CBFAFCF77FFF0822FCF75EFF2A463346C2
:10357000FCF7E2FEFCF798FF2168C860F8BD106810
:10358000C0060CD56068FCF76DFF02460B460020B4
:103590005B49FCF7D1FEFCF787FFE860F8BD606887
:1035A000FCF760FF02460B4600205649FCF7C4FEBC
:1035B000FCF77AFFE860F8BD6068FCF753FF05464A
:1035C0000E46FEF7B9FAFCF74DFF0822FCF72CFF78
:1035D0002A463346FCF7B0FEFCF766FF2168C86058
:1035E000F8BD0123E669DB039E4240D1092836D2AB
:1035F00003007B441B79DB189F44040C14312331F6
:1036000031312B00FEF778FA40006168FCF770FD5D
:1036100081B224E0FEF780FA40006168FCF768FDA3
:1036200081B21CE01068C00605D537486168FCF718
:103630005FFD81B213E035486168FCF759FD81B246
:103640000DE0FEF779FA40006168FCF751FD81B2A8
:1036500005E0012000046168FCF74AFD81B20A0917
:1036600012010807400F10432168C860F8BD0928FF
:10367000FCD201007944097949188F44050D1504DD
:10368000240404042C00F1E7FEF736FA6168FCF725
:103690002FFD2168C860F8BDFEF73EFA6168FCF7AF
:1036A00027FD2168C860F8BD1068C00605D5184818
:1036B0006168FCF71DFDE860F8BD16486168FCF71D
:1036C00017FDE860F8BDFEF737FA6168FCF710FDFA
:1036D0002168C860F8BD18466168FCF709FDE8601C
:1036E000F8BD000000480040F369FFEF00380140DA
:1036F00040100240004400400010024000006041C1
:103700008084CE418084EE4100127A000048E801B6
:1037100000093D000024F400014660314A7A122A73
:1037200004D0497A322901D0022070470146403145
:103730004A8A002A12D0012382681B039A4202D1CE
:103740000269002A16D0C26C531CC3640068127848
:103750008262488A401E48820020704701680A68D9
:1037600080239A430A600068016840221143016087
:1037700000207047C26C03681288D205D20D9A628D
:10378000C26C921CC264E4E7F8B504460E461746C4
:103790001D46FEF723F8009039462746603700297A
:1037A00005D02068C169304688432FD058E0206892
:1037B000C1693046884353D0681C21D0002D05D004
:1037C000FEF70CF80099401AA84219D92068016840
:1037D00080229143016020680168202291430160AA
:1037E00020680168D200914301602068816849081F
:1037F0004900816001207872002038720320F8BDF2
:103800002068C16930468843D6D129E0681C22D09F
:10381000002D05D0FDF7E2FF0099401AA8421AD901
:103820002068026880218A430260206802682021A3
:103830008A43026020680168FF22013291430160DF
:103840002068816849084900816001207872002061
:1038500038720320F8BD2068C16930468843D5D04E
:103860000020F8BD10B50949074A0A6048600020E9
:103870008860C860086188610C2208624A614862F9
:103880000846FEF75CFE10BD004800409000002096
:1038900007480849007808800748027C4A80C27BB4
:1038A000CA80407C88800548C08808817047000035
:1038B000800400204C010020A0040020C00400204F
:1038C000F8B50520002402210007FDF779FF012645
:1038D00000270B4D00280BD0AF74052010210007E6
:1038E000FDF76EFF002806D0F7206F752040F8BD69
:1038F000AE740124F1E708206E752043F8BD000086
:10390000A0040020F8B5604D05212878022801D0D8
:10391000032800D129706878022801D0032800D13B
:10392000697001210846FFF715FA02210120FFF70F
:1039300011FA012251035548FDF749FF0622544967
:103940005448FDF709FBFF2491342046FDF7B2FDF2
:103950005048FDF755FB06224D494E48FDF7FCFA4D
:103960002046FDF7A7FD4A4CE068FCF773FD0646CC
:103970004948008BFCF76EFD4849FCF756FC314680
:10398000FCF790FC0746E860A068FCF763FD394649
:10399000FCF74BFC42490090FCF747FC0121FCF787
:1039A000BFFC4049FCF77EFCFCF76AFD3E4E3080D0
:1039B0006068FCF74FFD3946FCF737FC3849FCF7E7
:1039C00034FC3A49FCF731FC3949FCF76BFC3549CA
:1039D000FCF768FCFCF754FD708001210098FCF7AF
:1039E0009FFC3049FCF75EFCFCF74AFD314C6087D8
:1039F000C820FDF75FFD0121002249032348FDF7A0
:103A0000E6FE2448FDF7FCFA00F00CFCB080012132
:103A10000020FFF79FF902210020FFF79BF9032206
:103A20002078254C2070042060700620A0700020B3
:103A30004100735A1F0A0919CF700B71401C904244
:103A4000F6DB5600F01CC1B21B4800F019FC31191E
:103A5000C870000A0871761DF4B20020FCF74CFF14
:103A60001420FDF727FD21461348FCF769FF7D2050
:103A70000001FDF71FFDA878002803D121460E485C
:103A8000FCF75EFFF8BD00000000002000080050B9
:103A90005C020020300000206000F81F0000404061
:103AA0000000484500F07F453C0100209A992141E3
:103AB0003333534080040020F402002070B50C46DC
:103AC0000546FDF737FD224629460020FDF708FD93
:103AD000FDF7FCFC70BD2021020C01D01021104626
:103AE000020A01D010460839020901D01046091F08
:103AF000820801D01046891E420801D0881E7047F6
:103B0000081A704702E008C8121F08C1002AFAD13B
:103B100070477047002001E001C1121F002AFBD14D
:103B200070470000F3B581B005462846029900F0C1
:103B3000A7FB002841D1029808283ED1D94829780E
:103B40000078814231D1697800292ED0D64E30706C
:103B500068787070A878E9780002084300902879A6
:103B60000402687904436878D0490227012826D0E6
:103B7000022876D0032870D004286FD005286ED094
:103B800006286DD0803070700120B070032130465F
:103B900000F076FBF070000A307105213046FCF72A
:103BA000E5FE28460299FCF735FBC148407F012815
:103BB00003D128460299FFF79BF903B0F0BD00231B
:103BC000601E884239D82246BA48009900F076F93A
:103BD00000280FD0687880307070B7700321B24829
:103BE00000F04EFBF070000A30710521AE48FCF782
:103BF000BDFED6E7641EE017400F00194005040E15
:103C0000601C0146B0700020002906DDA94A125D43
:103C10003318DA70401C8842FADB201DC1B2A2487A
:103C200000F02EFB014630190171090A4171A41DF3
:103C3000E1B29D48FCF79AFEB3E781207070B7703F
:103C40000321994800F01CFBF070000A3071052137
:103C50009548FCF78BFEA4E703E04EE098E0C1E056
:103C600000E1601E884239D822469248009900F04F
:103C700075F900280FD0687880307070B770032114
:103C8000894800F0FDFAF070000A3071052186487D
:103C9000FCF76CFE85E7641EE017400F0019400535
:103CA000040E601C0146B0700020002906DD814A28
:103CB000125D3318DA70401C8842FADB201DC1B255
:103CC000794800F0DDFA014630190171090A4171A5
:103CD000A41DE1B27448FCF749FE62E782207070CF
:103CE000B7700321704800F0CBFAF070000A307111
:103CF00005216D48FCF73AFE53E7601E7C2837D853
:103D0000002322466B48009900F058F900280FD094
:103D1000687880307070B7700321634800F0B0FAA3
:103D2000F070000A307105215F48FCF71FFE38E78C
:103D3000B4700020002C0ADD5E4F41007B5C8A19C4
:103D4000D370C91949781171401CA042F5DB640099
:103D5000E01CC1B2544800F093FA0146A019C170AA
:103D6000090A0171641DE1B24F48FCF7FFFD18E735
:103D7000832070700320B07003214B4800F080FA5C
:103D8000F070000A307105214748FCF7EFFD08E7A5
:103D9000601E7C2816D822464648009900F058F943
:103DA00000289AD0687880307070B77003213E4840
:103DB00000F066FAF070000A307105213A48FCF70D
:103DC000D5FDEEE6842070700320B07003213648E4
:103DD00000F056FAF070000A307105213248FCF705
:103DE000C5FDDEE608212846FCF7C0FD0123002CB6
:103DF00003D0FF200002844223D1002C19D02E488A
:103E00000121017001222C48009900F057F8002888
:103E100013D0687880307070B7700321224800F0AA
:103E20002FFAF070000A307105211F48FCF79EFD43
:103E3000B7E6214800210170E4E70F20FDF73AFBC7
:103E4000AFE66878803070700320B07003211648A8
:103E500000F016FAF070000A307105211248FCF7E4
:103E600085FD9EE601231448210A01704470012259
:103E7000009900F0A3F800280FD0687880307070A7
:103E8000B7700321084800F0FBF9F070000A3071A8
:103E900005210548FCF76AFD83E608212846FCF762
:103EA00065FD7EE680040020F4020020CF070000BC
:103EB000E00400207402002010000020FFB581B053
:103EC00005460F4616460020009034B2FEF7B6FCB9
:103ED00038B2002839DBB919102936D806460498BB
:103EE000002802D0012832D114E0002C2FDD082C4C
:103EF00001DD082000E02046C2B2B1B2164800F051
:103F0000D7F928706D1C083C24B2083636B2002C54
:103F1000EDDC1CE0002C1ADD032F01D0022F03D1B1
:103F20002878791CFEF7CEFD2B786D1C082C01DD5E
:103F3000082000E02046C2B2B1B2074800F0C6F93E
:103F4000083C24B2002CE7DC01E001200090FEF7E1
:103F50006DFC009805B0F0BD08000020F8B50546DE
:103F60000E461746002000903CB2FFF7A9FC12490C
:103F70000870FEF763FC30B2002817DBF019102838
:103F800014D8002C14DD082C01DD082000E02046A8
:103F9000C2B23146084800F08BF928706D1C083C0D
:103FA00024B20836B6B2002CEDDC01E0012000900E
:103FB000FEF73CFC0098F8BD0A000020FFB581B078
:103FC00006460F46144600200090FEF737FCFFF728
:103FD0005FFC381908282FD81B48C0883D1A049860
:103FE0001A49002802D0012828D10FE0002C25D042
:103FF00068000A5A120A3270761C085C3070761C0F
:104000006D1C641EA4B2002CF2D117E0002C15D058
:104010003078761C01020D4B680019523278761CFC
:104020000A431A526D1C641EA4B239463046FEF78C
:1040300075FE002CECD101E001200090FEF7F6FBAC
:10404000009805B0F0BD0000000000204C010020E9
:10405000F8B505460F4614460026FEF7EFFBFFF7BE
:1040600051FC3819082813D80C488088391A002CBC
:104070000FD00B4A4800135A1B0A2B706D1C105CA2
:1040800028706D1C491C641EA4B2002CF2D100E003
:104090000126FEF7CBFB3046F8BD000000000020F3
:1040A0003C010020FDF7A8FBFEF776FFFEF736FC8B
:1040B000FEF718FCFEF7CAFBFEF7ECFCFF2201320C
:1040C0004C494D48FEF7B4FA4B480068016810228D
:1040D00011430160FDF702FC00214848FCF76AFD2E
:1040E000474D012291032846FDF771FB0122402133
:1040F0004448FDF76CFB0121002249032846FDF7E7
:1041000066FBFEF7BDFEFEF75DFBFEF743FB3E4898
:10411000C07BFCF73BFCFCF797FDFFF7F3FB3B4E46
:104120003B4D02270A20FDF7C5F9AC78802C02D35D
:104130000020A87000240020002C05DD2D4A115C11
:104140003154401CA042FADBFCF770FC21462F489A
:10415000FFF7E8FC0220FCF7CFFB2878012802D00B
:10416000002807D00DE02F702A48FDF7A3F9FFF7CC
:10417000C9FB06E0032028702648FDF79BF9FFF7EE
:10418000C1FB6878012802D0002807D00DE06F70CD
:104190002048FDF78FF9FFF7B5FB06E003206870B4
:1041A0001C48FDF787F9FFF7ADFB1B48FEF766FEDD
:1041B0001A490978884201D0FDF782FB184908683E
:1041C0000268520852000260FF200A680130506005
:1041D0000868016801221143016028786978084362
:1041E000A0D1FDF769FF01210846FDF77FFBFEF72F
:1041F000D3FE97E75C0100209000002030000020F3
:104200000008005000040050A004002074030020A7
:10421000000000208813000000000808800400202F
:104220000001002070B5FF2140311248FEF710FF59
:104230000A20FDF73FF9104C2078010617D58006BB
:10424000800EC10F0022D2430023FBF78DFF62686E
:10425000002582186941A2600B46E16007480021F1
:10426000FBF75CFF60806420FDF724F9257060880F
:1042700070BD0000FFFF000018000020A0860100B4
:1042800070B50A4DFF23EE1D1A46F93605E0047895
:1042900054402A5D5A40335D401C0C46491EC9B249
:1042A000002CF4D11802104370BD00001F43000819
:1042B00010B44B051B0EDC00091B01249440641E46
:1042C000E2B2C05CC840104010BC704770B4CC086B
:1042D000E500491B8B40012595406D1E8D40065D14
:1042E0000219517809023143A94319430155080ABB
:1042F000507070BC7047000000000102030401020E
:104300000304060708090000000000000000010285
:10431000030406070809030406080C1018203000DF
:10432000C1814001C0804101C0804100C181400184
:10433000C0804100C1814000C1814001C080410175
:10434000C0804100C1814000C1814001C080410066
:10435000C1814001C0804101C0804100C181400154
:10436000C0804100C1814000C1814001C080410046
:10437000C1814001C0804101C0804100C181400035
:10438000C1814001C0804101C0804100C181400124
:10439000C0804100C1814000C1814001C080410115
:1043A000C0804100C1814000C1814001C080410006
:1043B000C1814001C0804101C0804100C1814000F5
:1043C000C1814001C0804101C0804100C1814001E4
:1043D000C0804100C1814000C1814001C0804100D6
:1043E000C1814001C0804101C0804100C1814001C4
:1043F000C0804100C1814000C1814001C0804101B5
:10440000C0804100C1814000C1814001C0804100A5
:10441000C1814001C0804101C0804100C181400094
:10442000C0C101C30302C2C60607C705C5C404CC88
:104430000C0DCD0FCFCE0E0ACACB0BC90908C8D8B8
:104440001819D91BDBDA1A1EDEDF1FDD1D1CDC1478
:10445000D4D515D71716D6D21213D311D1D010F048
:104460003031F133F3F23236F6F737F53534F43CC8
:10447000FCFD3DFF3F3EFEFA3A3BFB39F9F8382898
:10448000E8E929EB2B2AEAEE2E2FEF2DEDEC2CE4B8
:104490002425E527E7E62622E2E323E12120E0A028
:1044A0006061A163A3A26266A6A767A56564A46C08
:1044B000ACAD6DAF6F6EAEAA6A6BAB69A9A8687838
:1044C000B8B979BB7B7ABABE7E7FBF7DBDBC7CB4F8
:1044D0007475B577B7B67672B2B373B17170B05008
:1044E0009091519353529296565797559594549C48
:1044F0005C5D9D5F9F9E5E5A9A9B5B995958988818
:104500004849894B8B8A4A4E8E8F4F8D4D4C8C4437
:1045100084854587474686824243834181804000A7
:104520000687E00689D4068BC8068DBC068FB006C8
:1045300091A406939806958C069780069974069028
:104540005C069F5006A14406A33806A52C06A720AA
:1045500006A91406AB0806ACFC06AEF006B0E406ED
:104560009B68000084450008000000203000000027
:10457000043B0008B445000830000020D8080000C3
:10458000143B0008050500000000000000000000CA
:10459000000000000000000000000000000000001B
:1045A000000000000000000000000000000000000B
:0445B00080841E00E5
:04000005080000C12E
:00000001FF
